HTL0709202313092023
DTLIN50042               ATK AF                      2281500000        2281500000                 0        2281500000        2281500000                 0ZER                                               MUR                   100000CR
DTLIN50042               TTX TAX                      982400000         982400000                 0         982400000         982400000                 0ZER                                               MUR                   100000CR
DTLIN62121               ATK                          150000000         130435000          19565000         150000000         130435000          19565000STD                                               MUR                   100000CR
DTLIN50042               ATK AF                      4384000000        4384000000                 0        4384000000        4384000000                 0ZER                                               MUR                   100000CR
DTLIN50042               TTX TAX                     2147300000        2147300000                 0        2147300000        2147300000                 0ZER                                               MUR                   100000CR
DTLIN62121               ATK                          250000000         217391000          32609000         250000000         217391000          32609000STD                                               MUR                   100000CR
