HTL                    IN10000025  1212202316012024        1386200000        1379678000           6522000        1386200000        1097300000           652200012406Invoice        MUR            100000STD                                               
DTLIN10000025   09727402659                    25042               SHLD        50042           1386200000        1386200000           6522000        1386200000        1386200000           6522000STD                                               MUR                   100000DR
DTLIN10000025   09727402659                    50042               ATK AF                      1097300000        1097300000                 0        1097300000        1097300000                 0ZER                                               MUR                   100000CR
DTLIN10000025   09727402659                    50042               TTX TAX                      238900000         238900000                 0         238900000         238900000                 0ZER                                               MUR                   100000CR
DTLIN10000025   09727402659                    62121               ATK                           43478000          43478000                 0          43478000          43478000                 0STD                                               MUR                   100000CR
DTLIN10000025   09727402659                    26060092                                           6522000           6522000                 0           6522000           6522000                 0STD                                               MUR                   100000CR

HTL                    CR10000024  1212202316012024        3413900000        3394335000          19565000        3413900000        2281500000          1956500012406Credit Note    MUR            100000STD                                               
DTLCR10000024   09727402744                    25042               SHLD        50042           3413900000        3413900000          19565000        3413900000        3413900000          19565000STD                                               MUR                   100000CR
DTLCR10000024   09727402744                    50042               ATK AF                      2281500000        2281500000                 0        2281500000        2281500000                 0ZER                                               MUR                   100000DR
DTLCR10000024   09727402744                    50042               TTX TAX                      982400000         982400000                 0         982400000         982400000                 0ZER                                               MUR                   100000DR
DTLCR10000024   09727402744                    62121               ATK                          130435000         130435000                 0         130435000         130435000                 0STD                                               MUR                   100000DR
DTLCR10000024   09727402744                    26060092                                          19565000          19565000                 0          19565000          19565000                 0STD                                               MUR                   100000DR

HTL                    CR10010024  1212202316012024        6781300000        6748691000          32609000        6781300000        4384000000          3260900012406Credit Note    MUR            100000STD                                               
DTLCR10010024   19727402745                    25042               SHLD        50042           6781300000        6781300000          32609000        6781300000        6781300000          32609000STD                                               MUR                   100000CR
DTLCR10010024   19727402745                    50042               ATK AF                      4384000000        4384000000                 0        4384000000        4384000000                 0ZER                                               MUR                   100000DR
DTLCR10010024   19727402745                    50042               TTX TAX                     2147300000        2147300000                 0        2147300000        2147300000                 0ZER                                               MUR                   100000DR
DTLCR10010024   19727402745                    62121               ATK                          217391000         217391000                 0         217391000         217391000                 0STD                                               MUR                   100000DR
DTLCR10010024   19727402745                    26060092                                          32609000          32609000                 0          32609000          32609000                 0STD                                               MUR                   100000DR
