HTL                    IN10000006  1909202320092023       11862535000       11568400000         294135000       11862535000       11568400000         29413500012403Invoice        MUR                        100000STD                                               
DTLIN10000006   09153695143                    25042               SHLD        50042          11862535000       11862535000         294135000       11862535000       11862535000         294135000STD                                               MUR                   100000DR
DTLIN10000006   09153695143                    50042               ATK AF                      9607500000        9607500000                 0        9607500000        9607500000                 0ZER                                               MUR                   100000CR
DTLIN10000006   09153695143                    50042               TTX TAX                     1960900000        1960900000                 0        1960900000        1960900000                 0ZER                                               MUR                   100000CR
DTLIN10000006   09153695143                    26060092                                         294135000         294135000                 0         294135000         294135000                 0ZER                                               MUR                   100000CR
DTLIN10000006   09153695143                    62121               ATK                                  0                 0                 0                 0                 0                 0STD                                               MUR                   100000CR
HTL                    IN10000006  1909202320092023       14584015000       14168785000         415230000       14584015000       14168785000         41523000012403Invoice        MUR                        100000STD                                               
DTLIN10000006   19153695143                    25042               SHLD        50042          14584015000       14584015000         415230000       14584015000       14584015000         415230000STD                                               MUR                   100000DR
DTLIN10000006   19153695143                    50042               ATK AF                      1793085000        1793085000                 0        1793085000        1793085000                 0ZER                                               MUR                   100000CR
DTLIN10000006   19153695143                    50042               TTX TAX                      807300000         807300000                 0         807300000         807300000                 0ZER                                               MUR                   100000CR
DTLIN10000006   19153695143                    26060092                                         121095000         121095000                 0         121095000         121095000                 0ZER                                               MUR                   100000CR
DTLIN10000006   19153695143                    62121               ATK                                  0                 0                 0                 0                 0                 0STD                                               MUR                   100000CR
HTL                    IN10000004  1409202320092023        3415175000        3267815000         147360000        3415175000        3267815000         14736000012403Invoice        MUR                        100000STD                                               
DTLIN10000004   0176-9727402744                25042               SHLD        50042           3415175000        3415175000         147360000        3415175000        3415175000         147360000STD                                               MUR                   100000DR
DTLIN10000004   0176-9727402744                50042               ATK AF                      2285415000        2285415000                 0        2285415000        2285415000                 0ZER                                               MUR                   100000CR
DTLIN10000004   0176-9727402744                50042               TTX TAX                      982400000         982400000                 0         982400000         982400000                 0ZER                                               MUR                   100000CR
DTLIN10000004   0176-9727402744                26060092                                         147360000         147360000                 0         147360000         147360000                 0ZER                                               MUR                   100000CR
DTLIN10000004   0176-9727402744                62121               ATK                                  0                 0                 0                 0                 0                 0STD                                               MUR                   100000CR
HTL                    IN          0709202320092023        3413900000        3394335000          19565000        3413900000        3394335000          1956500012403Invoice        MUR                        100000STD                                               
DTLIN           09727402744                    25042               SHLD        50042           3413900000        3413900000          19565000        3413900000        3413900000          19565000STD                                               MUR                   100000DR
DTLIN           09727402744                    50042               ATK AF                      2281500000        2281500000                 0        2281500000        2281500000                 0ZER                                               MUR                   100000CR
DTLIN           09727402744                    50042               TTX TAX                      982400000         982400000                 0         982400000         982400000                 0ZER                                               MUR                   100000CR
DTLIN           09727402744                    62121               ATK                          130435000         130435000                 0         130435000         130435000                 0STD                                               MUR                   100000CR
DTLIN           09727402744                    26060092                                          19565000          19565000                 0          19565000          19565000                 0STD                                               MUR                   100000CR
HTL                    IN          0709202320092023       10195200000       10143026000          52174000       10195200000       10143026000          5217400012403Invoice        MUR                        100000STD                                               
DTLIN           19727402744                    25042               SHLD        50042          10195200000       10195200000          52174000       10195200000       10195200000          52174000STD                                               MUR                   100000DR
DTLIN           19727402744                    50042               ATK AF                      4384000000        4384000000                 0        4384000000        4384000000                 0ZER                                               MUR                   100000CR
DTLIN           19727402744                    50042               TTX TAX                     2147300000        2147300000                 0        2147300000        2147300000                 0ZER                                               MUR                   100000CR
DTLIN           19727402744                    62121               ATK                          217391000         217391000                 0         217391000         217391000                 0STD                                               MUR                   100000CR
DTLIN           19727402744                    26060092                                          32609000          32609000                 0          32609000          32609000                 0STD                                               MUR                   100000CR
