HTL                    CR10000003  1409202314092023
DTLCR10000003    176-9727402744                50042               ATK AF                      2285415000        2285415000                 0        2285415000        2285415000                 0ZER                                               MUR                   100000CR
DTLCR10000003    176-9727402744                50042               TTX TAX                     1129760000         982400000         147360000        1129760000         982400000         147360000ZER                                               MUR                   100000CR
DTLCR10000003    176-9727402744                62121               ATK                                  0                 0                 0                 0                 0                 0STD                                               MUR                   100000CR
HTL                    IN10000002  1409202314092023
DTLIN10000002    176-9727402659                50042               ATK AF                      2808400000        2808400000                 0        2808400000        2808400000                 0ZER                                               MUR                   100000CR
DTLIN10000002    176-9727402659                50042               TTX TAX                     2966425000        2579500000         386925000        2966425000        2579500000         386925000ZER                                               MUR                   100000CR
DTLIN10000002    176-9727402659                62121               ATK                                  0                 0                 0                 0                 0                 0STD                                               MUR                   100000CR
DTLIN10000002    176-9727402659                50042               ATK AF                      4391280000        4391280000                 0        4391280000        4391280000                 0ZER                                               MUR                   100000CR
DTLIN10000002    176-9727402659                50042               TTX TAX                     2469395000        2147300000         322095000        2469395000        2147300000         322095000ZER                                               MUR                   100000CR
DTLIN10000002    176-9727402659                62121               ATK                                  0                 0                 0                 0                 0                 0STD                                               MUR                   100000CR
HTL                    IN          0709202314092023
DTLIN            176-9727402744                50042               ATK AF                      2281500000        2281500000                 0        2281500000        2281500000                 0ZER                                               MUR                   100000CR
DTLIN            176-9727402744                50042               TTX TAX                      982400000         982400000                 0         982400000         982400000                 0ZER                                               MUR                   100000CR
DTLIN            176-9727402744                62121               ATK                          150000000         130435000          19565000         150000000         130435000          19565000STD                                               MUR                   100000CR
DTLIN            176-9727402744                50042               ATK AF                      4384000000        4384000000                 0        4384000000        4384000000                 0ZER                                               MUR                   100000CR
DTLIN            176-9727402744                50042               TTX TAX                     2147300000        2147300000                 0        2147300000        2147300000                 0ZER                                               MUR                   100000CR
DTLIN            176-9727402744                62121               ATK                          250000000         217391000          32609000         250000000         217391000          32609000STD                                               MUR                   100000CR
