HTLCAS005              CR23000117  2806202328062023         165000000         165000000                 0         165000000         165000000                 012312Credit Note    MUR                   100000ZER                                               
DTLCR23000117   00000106502                    25042               SHLDHTO     50042            165000000         165000000                 0         165000000         165000000                 0ZER                                               MUR                   100000CR
DTLCR23000117   00000106502                    50042               HTO SIN                      165000000         165000000                 0         165000000         165000000                 0ZER                                               MUR                   100000DR
HTLSEA001              CR23000118  1006202310062023       25909600000       25909600000                 0       25909600000       18081000000                 012312Credit Note    MUR                   100000ZER                                               
DTLCR23000118   09727392297                    25042               NULL        50042          25909600000       25909600000                 0       25909600000       25909600000                 0ZER                                               MUR                   100000CR
DTLCR23000118   09727392297                    50042               ATK EK                     18081000000       18081000000                 0       18081000000       18081000000                 0ZER                                               MUR                   100000DR
DTLCR23000118   09727392297                    50042               TTX TAX                     7828600000        7828600000                 0        7828600000        7828600000                 0ZER                                               MUR                   100000DR
HTLMER003              CR23000119  2806202301062023        4087400000        4087400000                 0        4087400000        3372000000                 012312Credit Note    MUR                   100000ZER                                               
DTLCR23000119   01236022112                    25042               NULL        50042           4087400000        4087400000                 0        4087400000        4087400000                 0ZER                                               MUR                   100000CR
DTLCR23000119   01236022112                    50042               ATK EK                      3372000000        3372000000                 0        3372000000        3372000000                 0ZER                                               MUR                   100000DR
DTLCR23000119   01236022112                    50042               TTX TAX                      865400000         865400000                 0         865400000         865400000                 0ZER                                               MUR                   100000DR
DTLCR23000119   01236022112                    50042                                            150000000         150000000                 0         150000000         150000000                 0ZER                                               MUR                   100000CR
HTLSEA001              CR23000120  2806202328062023         989600000         989600000                 0         989600000         989600000                 012312Credit Note    MUR                   100000ZER                                               
DTLCR23000120   09727392297                    25042               NULL        50042            989600000         989600000                 0         989600000         989600000                 0ZER                                               MUR                   100000CR
DTLCR23000120   09727392297                    50042               ATK EK                       989600000         989600000                 0         989600000         989600000                 0ZER                                               MUR                   100000DR
HTLMER003              CR23000121  2806202306062023        4123300000        4123300000                 0        4123300000        3349500000                 012312Credit Note    MUR                   100000ZER                                               
DTLCR23000121   01236022142                    25042               NULL        50042           4123300000        4123300000                 0        4123300000        4123300000                 0ZER                                               MUR                   100000CR
DTLCR23000121   01236022142                    50042               ATK EK                      3349500000        3349500000                 0        3349500000        3349500000                 0ZER                                               MUR                   100000DR
DTLCR23000121   01236022142                    50042               TTX TAX                     1073800000        1073800000                 0        1073800000        1073800000                 0ZER                                               MUR                   100000DR
DTLCR23000121   01236022142                    50042                                            300000000         300000000                 0         300000000         300000000                 0ZER                                               MUR                   100000CR
HTLMER003              CR23010121  2806202305062023        4123300000        4123300000                 0        4123300000        3349500000                 012312Credit Note    MUR                   100000ZER                                               
DTLCR23010121   11236022143                    25042               NULL        50042           4123300000        4123300000                 0        4123300000        4123300000                 0ZER                                               MUR                   100000CR
DTLCR23010121   11236022143                    50042               ATK EK                      3349500000        3349500000                 0        3349500000        3349500000                 0ZER                                               MUR                   100000DR
DTLCR23010121   11236022143                    50042               TTX TAX                     1073800000        1073800000                 0        1073800000        1073800000                 0ZER                                               MUR                   100000DR
DTLCR23010121   11236022143                    50042                                            300000000         300000000                 0         300000000         300000000                 0ZER                                               MUR                   100000CR
HTLSEA001              CR23000122  2806202328062023         951300000         951300000                 0         951300000         951300000                 012312Credit Note    MUR                   100000ZER                                               
DTLCR23000122   00000017999                    25042               NULL        50042            951300000         951300000                 0         951300000         951300000                 0ZER                                               MUR                   100000CR
DTLCR23000122   00000017999                    50042               INS MEI                      951300000         951300000                 0         951300000         951300000                 0ZER                                               MUR                   100000DR
HTLLOG001              CR23000123  2806202328062023        1180500000        1180500000                 0        1180500000         874500000                 012312Credit Note    MUR                   100000ZER                                               
DTLCR23000123   01236002161                    25042               SHLD        50042           1180500000        1180500000                 0        1180500000        1180500000                 0ZER                                               MUR                   100000CR
DTLCR23000123   01236002161                    50042               ATK MK                       874500000         874500000                 0         874500000         874500000                 0ZER                                               MUR                   100000DR
DTLCR23000123   01236002161                    50042               TTX TAX                      356000000         356000000                 0         356000000         356000000                 0ZER                                               MUR                   100000DR
DTLCR23000123   01236002161                    50042                                             50000000          50000000                 0          50000000          50000000                 0ZER                                               MUR                   100000CR
HTLCAS006              CR23000124  2806202327062023        1564900000        1557400000           7500000        1564900000         677000000           750000012312Credit Note    MUR                   100000STD                                               
DTLCR23000124   01236002211                    25042               NULL        50042           1564900000        1564900000           7500000        1564900000        1564900000           7500000STD                                               MUR                   100000CR
DTLCR23000124   01236002211                    50042               ATK MK                       677000000         677000000                 0         677000000         677000000                 0ZER                                               MUR                   100000DR
DTLCR23000124   01236002211                    50042               TTX TAX                      830400000         830400000                 0         830400000         830400000                 0ZER                                               MUR                   100000DR
DTLCR23000124   01236002211                    62121               ATK                           50000000          50000000                 0          50000000          50000000                 0STD                                               MUR                   100000DR
DTLCR23000124   01236002211                    26060092                                           7500000           7500000                 0           7500000           7500000                 0STD                                               MUR                   100000DR
HTLCAS006              CR23000125  2806202328062023        1708100000        1700600000           7500000        1708100000         802500000           750000012312Credit Note    MUR                   100000STD                                               
DTLCR23000125   01236010891                    25042               NULL        50042           1708100000        1708100000           7500000        1708100000        1708100000           7500000STD                                               MUR                   100000CR
DTLCR23000125   01236010891                    50042               ATK MK                       802500000         802500000                 0         802500000         802500000                 0ZER                                               MUR                   100000DR
DTLCR23000125   01236010891                    50042               TTX TAX                      848100000         848100000                 0         848100000         848100000                 0ZER                                               MUR                   100000DR
DTLCR23000125   01236010891                    62121               ATK                           50000000          50000000                 0          50000000          50000000                 0STD                                               MUR                   100000DR
DTLCR23000125   01236010891                    26060092                                           7500000           7500000                 0           7500000           7500000                 0STD                                               MUR                   100000DR
HTLIBL029              CR23000126  2806202328062023        4652200000        4652200000                 0        4652200000        3579000000                 012312Credit Note    MUR                   100000ZER                                               
DTLCR23000126   01236031665                    25042               NULL        50042           4652200000        4652200000                 0        4652200000        4652200000                 0ZER                                               MUR                   100000CR
DTLCR23000126   01236031665                    50042               ATK KQ                      3579000000        3579000000                 0        3579000000        3579000000                 0ZER                                               MUR                   100000DR
DTLCR23000126   01236031665                    50042               TTX TAX                     1540700000        1540700000                 0        1540700000        1540700000                 0ZER                                               MUR                   100000DR
DTLCR23000126   01236031665                    50042                                            467500000         467500000                 0         467500000         467500000                 0ZER                                               MUR                   100000CR
HTLCHA007              CR23000127  2806202315062023        2703500000        2703500000                 0        2703500000        2454500000                 012312Credit Note    MUR                   100000ZER                                               
DTLCR23000127   09727392442                    25042                           50042           2703500000        2703500000                 0        2703500000        2703500000                 0ZER                                               MUR                   100000CR
DTLCR23000127   09727392442                    50042               ATK UK                      2454500000        2454500000                 0        2454500000        2454500000                 0ZER                                               MUR                   100000DR
DTLCR23000127   09727392442                    50042               TTX TAX                      609000000         609000000                 0         609000000         609000000                 0ZER                                               MUR                   100000DR
DTLCR23000127   09727392442                    50042                                            360000000         360000000                 0         360000000         360000000                 0ZER                                               MUR                   100000CR
HTLCHA007              CR23010127  2806202315062023        2703500000        2703500000                 0        2703500000        2454500000                 012312Credit Note    MUR                   100000ZER                                               
DTLCR23010127   19727392435                    25042                           50042           2703500000        2703500000                 0        2703500000        2703500000                 0ZER                                               MUR                   100000CR
DTLCR23010127   19727392435                    50042               ATK UK                      2454500000        2454500000                 0        2454500000        2454500000                 0ZER                                               MUR                   100000DR
DTLCR23010127   19727392435                    50042               TTX TAX                      609000000         609000000                 0         609000000         609000000                 0ZER                                               MUR                   100000DR
DTLCR23010127   19727392435                    50042                                            360000000         360000000                 0         360000000         360000000                 0ZER                                               MUR                   100000CR
HTLCAS006              IN23001609  2806202321062023         200000000         193478000           6522000         200000000                 0           652200012312Invoice        MUR                   100000STD                                               
DTLIN23001609   09727392537                    25042               NULL        50042            200000000         200000000           6522000         200000000         200000000           6522000STD                                               MUR                   100000DR
DTLIN23001609   09727392537                    50042               TTX TAX                      150000000         150000000                 0         150000000         150000000                 0ZER                                               MUR                   100000CR
DTLIN23001609   09727392537                    62121               ATK                           43478000          43478000                 0          43478000          43478000                 0STD                                               MUR                   100000CR
DTLIN23001609   09727392537                    26060092                                           6522000           6522000                 0           6522000           6522000                 0STD                                               MUR                   100000CR
HTLEAG001              IN23001610  2806202328062023        1386200000        1379678000           6522000        1386200000        1097300000           652200012312Invoice        MUR                   100000STD                                               
DTLIN23001610   09727402659                    25042                           50042           1386200000        1386200000           6522000        1386200000        1386200000           6522000STD                                               MUR                   100000DR
DTLIN23001610   09727402659                    50042               ATK EK                      1097300000        1097300000                 0        1097300000        1097300000                 0ZER                                               MUR                   100000CR
DTLIN23001610   09727402659                    50042               TTX TAX                      238900000         238900000                 0         238900000         238900000                 0ZER                                               MUR                   100000CR
DTLIN23001610   09727402659                    62121               ATK                           43478000          43478000                 0          43478000          43478000                 0STD                                               MUR                   100000CR
DTLIN23001610   09727402659                    26060092                                           6522000           6522000                 0           6522000           6522000                 0STD                                               MUR                   100000CR
HTLCAS005              IN23001611  2806202328062023          50000000          50000000                 0          50000000          50000000                 012312Invoice        MUR                   100000ZER                                               
DTLIN23001611   09727402660                    25042               SHLD        50042             50000000          50000000                 0          50000000          50000000                 0ZER                                               MUR                   100000DR
DTLIN23001611   09727402660                    50042               ATK MK                        50000000          50000000                 0          50000000          50000000                 0ZER                                               MUR                   100000CR
HTLCAS005              IN23011611  2806202315062023        4775000000        4748365000          26635000        4775000000        2765500000          2663500012312Invoice        MUR                   100000STD                                               
DTLIN23011611   19727392473                    25042               SHLD        50042           4775000000        4775000000          26635000        4775000000        4775000000          26635000STD                                               MUR                   100000DR
DTLIN23011611   19727392473                    50042               ATK MK                      2765500000        2765500000                 0        2765500000        2765500000                 0ZER                                               MUR                   100000CR
DTLIN23011611   19727392473                    50042               TTX TAX                     1805300000        1805300000                 0        1805300000        1805300000                 0ZER                                               MUR                   100000CR
DTLIN23011611   19727392473                    62121               ATK                          177565000         177565000                 0         177565000         177565000                 0STD                                               MUR                   100000CR
DTLIN23011611   19727392473                    26060092                                          26635000          26635000                 0          26635000          26635000                 0STD                                               MUR                   100000CR
HTLCAS005              IN23021611  2806202315062023        4725000000        4698365000          26635000        4725000000        2765500000          2663500012312Invoice        MUR                   100000STD                                               
DTLIN23021611   29727392474                    25042               SHLD        50042           4725000000        4725000000          26635000        4725000000        4725000000          26635000STD                                               MUR                   100000DR
DTLIN23021611   29727392474                    50042               ATK MK                      2765500000        2765500000                 0        2765500000        2765500000                 0ZER                                               MUR                   100000CR
DTLIN23021611   29727392474                    50042               TTX TAX                     1755300000        1755300000                 0        1755300000        1755300000                 0ZER                                               MUR                   100000CR
DTLIN23021611   29727392474                    62121               ATK                          177565000         177565000                 0         177565000         177565000                 0STD                                               MUR                   100000CR
DTLIN23021611   29727392474                    26060092                                          26635000          26635000                 0          26635000          26635000                 0STD                                               MUR                   100000CR
HTLCAS005              IN23001612  2306202323062023        5777900000        5747900000          30000000        5777900000        4096000000          3000000012312Invoice        MUR                   100000STD                                               
DTLIN23001612   09727402622                    25042               SHLD        50042           5777900000        5777900000          30000000        5777900000        5777900000          30000000STD                                               MUR                   100000DR
DTLIN23001612   09727402622                    50042               ATK AF                      4096000000        4096000000                 0        4096000000        4096000000                 0ZER                                               MUR                   100000CR
DTLIN23001612   09727402622                    50042               TTX TAX                     1451900000        1451900000                 0        1451900000        1451900000                 0ZER                                               MUR                   100000CR
DTLIN23001612   09727402622                    62121               ATK                          200000000         200000000                 0         200000000         200000000                 0STD                                               MUR                   100000CR
DTLIN23001612   09727402622                    26060092                                          30000000          30000000                 0          30000000          30000000                 0STD                                               MUR                   100000CR
HTLCAS005              IN23011612  2306202323062023        5777900000        5747900000          30000000        5777900000        4096000000          3000000012312Invoice        MUR                   100000STD                                               
DTLIN23011612   19727402623                    25042               SHLD        50042           5777900000        5777900000          30000000        5777900000        5777900000          30000000STD                                               MUR                   100000DR
DTLIN23011612   19727402623                    50042               ATK AF                      4096000000        4096000000                 0        4096000000        4096000000                 0ZER                                               MUR                   100000CR
DTLIN23011612   19727402623                    50042               TTX TAX                     1451900000        1451900000                 0        1451900000        1451900000                 0ZER                                               MUR                   100000CR
DTLIN23011612   19727402623                    62121               ATK                          200000000         200000000                 0         200000000         200000000                 0STD                                               MUR                   100000CR
DTLIN23011612   19727402623                    26060092                                          30000000          30000000                 0          30000000          30000000                 0STD                                               MUR                   100000CR
HTLCAS005              IN23021612  2306202323062023        5777900000        5747900000          30000000        5777900000        4096000000          3000000012312Invoice        MUR                   100000STD                                               
DTLIN23021612   29727402624                    25042               SHLD        50042           5777900000        5777900000          30000000        5777900000        5777900000          30000000STD                                               MUR                   100000DR
DTLIN23021612   29727402624                    50042               ATK AF                      4096000000        4096000000                 0        4096000000        4096000000                 0ZER                                               MUR                   100000CR
DTLIN23021612   29727402624                    50042               TTX TAX                     1451900000        1451900000                 0        1451900000        1451900000                 0ZER                                               MUR                   100000CR
DTLIN23021612   29727402624                    62121               ATK                          200000000         200000000                 0         200000000         200000000                 0STD                                               MUR                   100000CR
DTLIN23021612   29727402624                    26060092                                          30000000          30000000                 0          30000000          30000000                 0STD                                               MUR                   100000CR
HTLPIC001              IN23001613  2306202323062023          42000000          37500000           4500000          42000000                 0           450000012312Invoice        MUR                   100000STD                                               
DTLIN23001613   09727402625                    25042               FDPB        50042             42000000          42000000           4500000          42000000          42000000           4500000STD                                               MUR                   100000DR
DTLIN23001613   09727402625                    50042               TTX TAX                        7500000           7500000                 0           7500000           7500000                 0ZER                                               MUR                   100000CR
DTLIN23001613   09727402625                    62121               ATK                           30000000          30000000                 0          30000000          30000000                 0STD                                               MUR                   100000CR
DTLIN23001613   09727402625                    26060092                                           4500000           4500000                 0           4500000           4500000                 0STD                                               MUR                   100000CR
HTLPIC001              IN23001614  2606202326062023        5324900000        5294900000          30000000        5324900000        2017000000          3000000012312Invoice        MUR                   100000STD                                               
DTLIN23001614   09727402645                    25042               FDPB        50042           5324900000        5324900000          30000000        5324900000        5324900000          30000000STD                                               MUR                   100000DR
DTLIN23001614   09727402645                    50042               ATK UU                      2017000000        2017000000                 0        2017000000        2017000000                 0ZER                                               MUR                   100000CR
DTLIN23001614   09727402645                    50042               TTX TAX                     3077900000        3077900000                 0        3077900000        3077900000                 0ZER                                               MUR                   100000CR
DTLIN23001614   09727402645                    62121               ATK                          200000000         200000000                 0         200000000         200000000                 0STD                                               MUR                   100000CR
DTLIN23001614   09727402645                    26060092                                          30000000          30000000                 0          30000000          30000000                 0STD                                               MUR                   100000CR
HTLBEA001              IN23001615  2806202323062023        4690000000        4690000000                 0        4690000000        3194500000                 012312Invoice        MUR                   100000ZER                                               
DTLIN23001615   09727402620                    25042               NULL        50042           4690000000        4690000000                 0        4690000000        4690000000                 0ZER                                               MUR                   100000DR
DTLIN23001615   09727402620                    50042               ATK MK                      3194500000        3194500000                 0        3194500000        3194500000                 0ZER                                               MUR                   100000CR
DTLIN23001615   09727402620                    50042               TTX TAX                     1495500000        1495500000                 0        1495500000        1495500000                 0ZER                                               MUR                   100000CR
HTLCAS005              IN23001616  2806202323062023        4046200000        4013591000          32609000        4046200000        1860000000          3260900012312Invoice        MUR                   100000STD                                               
DTLIN23001616   09727402621                    25042               SHLD        50042           4046200000        4046200000          32609000        4046200000        4046200000          32609000STD                                               MUR                   100000DR
DTLIN23001616   09727402621                    50042               ATK KF                      1860000000        1860000000                 0        1860000000        1860000000                 0ZER                                               MUR                   100000CR
DTLIN23001616   09727402621                    50042               TTX TAX                     1936200000        1936200000                 0        1936200000        1936200000                 0ZER                                               MUR                   100000CR
DTLIN23001616   09727402621                    62121               ATK                          217391000         217391000                 0         217391000         217391000                 0STD                                               MUR                   100000CR
DTLIN23001616   09727402621                    26060092                                          32609000          32609000                 0          32609000          32609000                 0STD                                               MUR                   100000CR
HTLCAS006              IN23001617  2806202322062023        6567500000        6528370000          39130000        6567500000        4301500000          3913000012312Invoice        MUR                   100000STD                                               
DTLIN23001617   09727402609                    25042               NULL        50042           6567500000        6567500000          39130000        6567500000        6567500000          39130000STD                                               MUR                   100000DR
DTLIN23001617   09727402609                    50042               ATK EK                      4301500000        4301500000                 0        4301500000        4301500000                 0ZER                                               MUR                   100000CR
DTLIN23001617   09727402609                    50042               TTX TAX                     1966000000        1966000000                 0        1966000000        1966000000                 0ZER                                               MUR                   100000CR
DTLIN23001617   09727402609                    62121               ATK                          260870000         260870000                 0         260870000         260870000                 0STD                                               MUR                   100000CR
DTLIN23001617   09727402609                    26060092                                          39130000          39130000                 0          39130000          39130000                 0STD                                               MUR                   100000CR
HTLLAG006              IN23001618  2806202323062023        1950000000        1943478000           6522000        1950000000        1793900000           652200012312Invoice        MUR                   100000STD                                               
DTLIN23001618   09727402627                    25042                           50042           1950000000        1950000000           6522000        1950000000        1950000000           6522000STD                                               MUR                   100000DR
DTLIN23001618   09727402627                    50042               ATK TK                      1793900000        1793900000                 0        1793900000        1793900000                 0ZER                                               MUR                   100000CR
DTLIN23001618   09727402627                    50042               TTX TAX                      106100000         106100000                 0         106100000         106100000                 0ZER                                               MUR                   100000CR
DTLIN23001618   09727402627                    62121               ATK                           43478000          43478000                 0          43478000          43478000                 0STD                                               MUR                   100000CR
DTLIN23001618   09727402627                    26060092                                           6522000           6522000                 0           6522000           6522000                 0STD                                               MUR                   100000CR
HTLMED003              IN23001619  2806202328062023        2731100000        2731100000                 0        2731100000        2731100000                 012312Invoice        MUR                   100000ZER                                               
DTLIN23001619   00000106829                    25042               PHPIHTO     50042           2731100000        2731100000                 0        2731100000        2731100000                 0ZER                                               MUR                   100000DR
DTLIN23001619   00000106829                    50042               HTO SIN                     2731100000        2731100000                 0        2731100000        2731100000                 0ZER                                               MUR                   100000CR
HTLSEA001              IN23001620  2806202309062023       26282700000       26230526000          52174000       26282700000       17643000000          5217400012312Invoice        MUR                   100000STD                                               
DTLIN23001620   09727392400                    25042               NULL        50042          26282700000       26282700000          52174000       26282700000       26282700000          52174000STD                                               MUR                   100000DR
DTLIN23001620   09727392400                    50042               ATK EK                     17643000000       17643000000                 0       17643000000       17643000000                 0ZER                                               MUR                   100000CR
DTLIN23001620   09727392400                    50042               TTX TAX                     8239700000        8239700000                 0        8239700000        8239700000                 0ZER                                               MUR                   100000CR
DTLIN23001620   09727392400                    62121               ATK                          347826000         347826000                 0         347826000         347826000                 0STD                                               MUR                   100000CR
DTLIN23001620   09727392400                    26060092                                          52174000          52174000                 0          52174000          52174000                 0STD                                               MUR                   100000CR
HTLSEA001              IN23001621  2806202328062023        1300000000        1280435000          19565000        1300000000        1150000000          1956500012312Invoice        MUR                   100000STD                                               
DTLIN23001621   02160942105                    25042               NULL        50042           1300000000        1300000000          19565000        1300000000        1300000000          19565000STD                                               MUR                   100000DR
DTLIN23001621   02160942105                    50042               ATK OS                      1150000000        1150000000                 0        1150000000        1150000000                 0ZER                                               MUR                   100000CR
DTLIN23001621   02160942105                    62121               ATK                          130435000         130435000                 0         130435000         130435000                 0STD                                               MUR                   100000CR
DTLIN23001621   02160942105                    26060092                                          19565000          19565000                 0          19565000          19565000                 0STD                                               MUR                   100000CR
HTLSEA001              IN23001622  2806202328062023        2700700000        2681135000                 0        2700700000        2550700000                 012312Invoice        MUR                   100000STD                                               
DTLIN23001622   00000106835                    25042               NULLHTO     50042           2700700000        2700700000          19565000        2700700000        2700700000          19565000STD                                               MUR                   100000DR
DTLIN23001622   00000106835                    50042               HTO SIN                     2550700000        2550700000                 0        2550700000        2550700000                 0ZER                                               MUR                   100000CR
DTLIN23001622   00000106835                    62121               ATK                          130435000         130435000                 0         130435000         130435000                 0STD                                               MUR                   100000CR
DTLIN23001622   00000106835                    26060092                                          19565000          19565000                 0          19565000          19565000                 0STD                                               MUR                   100000CR
HTLSEA001              IN23011622  2806202328062023        3450000000        3430435000                 0        3450000000        3300000000                 012312Invoice        MUR                   100000STD                                               
DTLIN23011622   10000106836                    25042               NULLHTO     50042           3450000000        3450000000          19565000        3450000000        3450000000          19565000STD                                               MUR                   100000DR
DTLIN23011622   10000106836                    50042               HTO SIN                     3300000000        3300000000                 0        3300000000        3300000000                 0ZER                                               MUR                   100000CR
DTLIN23011622   10000106836                    62121               ATK                          130435000         130435000                 0         130435000         130435000                 0STD                                               MUR                   100000CR
DTLIN23011622   10000106836                    26060092                                          19565000          19565000                 0          19565000          19565000                 0STD                                               MUR                   100000CR
HTLSEA001              IN23001623  2806202328062023        4800000000        4780435000                 0        4800000000        4650000000                 012312Invoice        MUR                   100000STD                                               
DTLIN23001623   00000106837                    25042               NULLHTO     50042           4800000000        4800000000          19565000        4800000000        4800000000          19565000STD                                               MUR                   100000DR
DTLIN23001623   00000106837                    50042               HTO SIN                     4650000000        4650000000                 0        4650000000        4650000000                 0ZER                                               MUR                   100000CR
DTLIN23001623   00000106837                    62121               ATK                          130435000         130435000                 0         130435000         130435000                 0STD                                               MUR                   100000CR
DTLIN23001623   00000106837                    26060092                                          19565000          19565000                 0          19565000          19565000                 0STD                                               MUR                   100000CR
HTLWHI001              IN23001624  2806202326062023       13500000000       13500000000                 0       13500000000        9058600000                 012312Invoice        MUR                   100000ZER                                               
DTLIN23001624   09727402640                    25042               NULL        50042          13500000000       13500000000                 0       13500000000       13500000000                 0ZER                                               MUR                   100000DR
DTLIN23001624   09727402640                    50042               ATK MK                      9058600000        9058600000                 0        9058600000        9058600000                 0ZER                                               MUR                   100000CR
DTLIN23001624   09727402640                    50042               TTX TAX                     4441400000        4441400000                 0        4441400000        4441400000                 0ZER                                               MUR                   100000CR
HTLWHI001              IN23011624  2806202326062023       13500000000       13500000000                 0       13500000000        9058600000                 012312Invoice        MUR                   100000ZER                                               
DTLIN23011624   19727402641                    25042               NULL        50042          13500000000       13500000000                 0       13500000000       13500000000                 0ZER                                               MUR                   100000DR
DTLIN23011624   19727402641                    50042               ATK MK                      9058600000        9058600000                 0        9058600000        9058600000                 0ZER                                               MUR                   100000CR
DTLIN23011624   19727402641                    50042               TTX TAX                     4441400000        4441400000                 0        4441400000        4441400000                 0ZER                                               MUR                   100000CR
HTLWHI001              IN23021624  2806202326062023       13500000000       13500000000                 0       13500000000        9058600000                 012312Invoice        MUR                   100000ZER                                               
DTLIN23021624   29727402642                    25042               NULL        50042          13500000000       13500000000                 0       13500000000       13500000000                 0ZER                                               MUR                   100000DR
DTLIN23021624   29727402642                    50042               ATK MK                      9058600000        9058600000                 0        9058600000        9058600000                 0ZER                                               MUR                   100000CR
DTLIN23021624   29727402642                    50042               TTX TAX                     4441400000        4441400000                 0        4441400000        4441400000                 0ZER                                               MUR                   100000CR
HTLCAS005              IN23001625  2306202319062023        4750000000        4720078000          29922000        4750000000        2765500000          2992200012312Invoice        MUR                   100000STD                                               
DTLIN23001625   09727392522                    25042               SHLD        50042           4750000000        4750000000          29922000        4750000000        4750000000          29922000STD                                               MUR                   100000DR
DTLIN23001625   09727392522                    50042               ATK MK                      2765500000        2765500000                 0        2765500000        2765500000                 0ZER                                               MUR                   100000CR
DTLIN23001625   09727392522                    50042               TTX TAX                     1755100000        1755100000                 0        1755100000        1755100000                 0ZER                                               MUR                   100000CR
DTLIN23001625   09727392522                    62121               ATK                          199478000         199478000                 0         199478000         199478000                 0STD                                               MUR                   100000CR
DTLIN23001625   09727392522                    26060092                                          29922000          29922000                 0          29922000          29922000                 0STD                                               MUR                   100000CR
HTLIBL012              IN23001626  2806202328062023        1600000000        1580435000                 0        1600000000        1450000000                 012312Invoice        MUR                   100000STD                                               
DTLIN23001626   00000106838                    25042               FDBRHTO     50042           1600000000        1600000000          19565000        1600000000        1600000000          19565000STD                                               MUR                   100000DR
DTLIN23001626   00000106838                    50042               HTO SIN                     1450000000        1450000000                 0        1450000000        1450000000                 0ZER                                               MUR                   100000CR
DTLIN23001626   00000106838                    62121               ATK                          130435000         130435000                 0         130435000         130435000                 0STD                                               MUR                   100000CR
DTLIN23001626   00000106838                    26060092                                          19565000          19565000                 0          19565000          19565000                 0STD                                               MUR                   100000CR
HTLIBL012              IN23001627  2806202328062023        1600000000        1580435000                 0        1600000000        1450000000                 012312Invoice        MUR                   100000STD                                               
DTLIN23001627   00000106834                    25042               FDBRHTO     50042           1600000000        1600000000          19565000        1600000000        1600000000          19565000STD                                               MUR                   100000DR
DTLIN23001627   00000106834                    50042               HTO SIN                     1450000000        1450000000                 0        1450000000        1450000000                 0ZER                                               MUR                   100000CR
DTLIN23001627   00000106834                    62121               ATK                          130435000         130435000                 0         130435000         130435000                 0STD                                               MUR                   100000CR
DTLIN23001627   00000106834                    26060092                                          19565000          19565000                 0          19565000          19565000                 0STD                                               MUR                   100000CR
HTLCON003              IN23001628  2806202328062023        2913300000        2893735000          19565000        2913300000        2557000000          1956500012312Invoice        MUR                   100000STD                                               
DTLIN23001628   09727383334                    25042               ACEL        50042           2913300000        2913300000          19565000        2913300000        2913300000          19565000STD                                               MUR                   100000DR
DTLIN23001628   09727383334                    50042               ATK UK                      2557000000        2557000000                 0        2557000000        2557000000                 0ZER                                               MUR                   100000CR
DTLIN23001628   09727383334                    50042               TTX TAX                      206300000         206300000                 0         206300000         206300000                 0ZER                                               MUR                   100000CR
DTLIN23001628   09727383334                    62121               ATK                          130435000         130435000                 0         130435000         130435000                 0STD                                               MUR                   100000CR
DTLIN23001628   09727383334                    26060092                                          19565000          19565000                 0          19565000          19565000                 0STD                                               MUR                   100000CR
