HTLAFR001              CR23000128  0607202306072023        3288600000        3288600000                 0        3288600000        1717000000                 012401Credit Note    MUR                   100000ZER                                               
DTLCR23000128   01236031477                    25042                           50042           3288600000        3288600000                 0        3288600000        3288600000                 0ZER                                               MUR                   100000CR
DTLCR23000128   01236031477                    50042               ATK SA                      1717000000        1717000000                 0        1717000000        1717000000                 0ZER                                               MUR                   100000DR
DTLCR23000128   01236031477                    50042               TTX TAX                     2000900000        2000900000                 0        2000900000        2000900000                 0ZER                                               MUR                   100000DR
DTLCR23000128   01236031477                    50042                                            429300000         429300000                 0         429300000         429300000                 0ZER                                               MUR                   100000CR
HTLCAS006              IN23001695  0607202306072023         165900000         165900000                 0         165900000         165900000                 012401Invoice        MUR                   100000ZER                                               
DTLIN23001695   00000018295                    25042               NULL        50042            165900000         165900000                 0         165900000         165900000                 0ZER                                               MUR                   100000DR
DTLIN23001695   00000018295                    50042               INS MEI                      165900000         165900000                 0         165900000         165900000                 0ZER                                               MUR                   100000CR
HTLPRE005              IN23001696  0607202306072023         166500000         166500000                 0         166500000         166500000                 012401Invoice        MUR                   100000ZER                                               
DTLIN23001696   00000018299                    25042                           50042            166500000         166500000                 0         166500000         166500000                 0ZER                                               MUR                   100000DR
DTLIN23001696   00000018299                    50042               INS MEI                      166500000         166500000                 0         166500000         166500000                 0ZER                                               MUR                   100000CR
HTLPRE005              IN23011696  0607202306072023         441500000         441500000                 0         441500000         441500000                 012401Invoice        MUR                   100000ZER                                               
DTLIN23011696   10000018300                    25042                           50042            441500000         441500000                 0         441500000         441500000                 0ZER                                               MUR                   100000DR
DTLIN23011696   10000018300                    50042               INS MEI                      441500000         441500000                 0         441500000         441500000                 0ZER                                               MUR                   100000CR
HTLPRE005              IN23021696  0607202306072023       17893300000       17893300000                 0       17893300000       17893300000                 012401Invoice        MUR                   100000ZER                                               
DTLIN23021696   20000106839                    25042                   HTO     50042          17893300000       17893300000                 0       17893300000       17893300000                 0ZER                                               MUR                   100000DR
DTLIN23021696   20000106839                    50042               HTO SIN                    17893300000       17893300000                 0       17893300000       17893300000                 0ZER                                               MUR                   100000CR
HTLPRE005              IN23031696  0607202306072023        5896700000        5896700000                 0        5896700000        5896700000                 012401Invoice        MUR                   100000ZER                                               
DTLIN23031696   30000106840                    25042                   HTO     50042           5896700000        5896700000                 0        5896700000        5896700000                 0ZER                                               MUR                   100000DR
DTLIN23031696   30000106840                    50042               HTO SIN                     5896700000        5896700000                 0        5896700000        5896700000                 0ZER                                               MUR                   100000CR
HTLCON003              IN23001697  0607202306072023        1949980000        1695635000         254345000        1949980000        1565200000         25434500012401Invoice        MUR                   100000STD                                               
DTLIN23001697   00000106859                    25042               ACELHTO     50042           1949980000        1949980000         254345000        1949980000        1949980000         254345000STD                                               MUR                   100000DR
DTLIN23001697   00000106859                    50042               HTO SUN                     1565200000        1565200000                 0        1565200000        1565200000                 0STD                                               MUR                   100000CR
DTLIN23001697   00000106859                    62121               ATK                          130435000         130435000                 0         130435000         130435000                 0STD                                               MUR                   100000CR
DTLIN23001697   00000106859                    26060092                                         254345000         254345000                 0         254345000         254345000                 0STD                                               MUR                   100000CR
HTLCAS005              IN23001698  0507202305072023        6529400000        6496791000          32609000        6529400000        4458000000          3260900012401Invoice        MUR                   100000STD                                               
DTLIN23001698   09727402783                    25042               SHLD        50042           6529400000        6529400000          32609000        6529400000        6529400000          32609000STD                                               MUR                   100000DR
DTLIN23001698   09727402783                    50042               ATK MK                      4458000000        4458000000                 0        4458000000        4458000000                 0ZER                                               MUR                   100000CR
DTLIN23001698   09727402783                    50042               TTX TAX                     1821400000        1821400000                 0        1821400000        1821400000                 0ZER                                               MUR                   100000CR
DTLIN23001698   09727402783                    62121               ATK                          217391000         217391000                 0         217391000         217391000                 0STD                                               MUR                   100000CR
DTLIN23001698   09727402783                    26060092                                          32609000          32609000                 0          32609000          32609000                 0STD                                               MUR                   100000CR
HTLCAS005              IN23011698  0507202305072023        6529400000        6496791000          32609000        6529400000        4458000000          3260900012401Invoice        MUR                   100000STD                                               
DTLIN23011698   19727402784                    25042               SHLD        50042           6529400000        6529400000          32609000        6529400000        6529400000          32609000STD                                               MUR                   100000DR
DTLIN23011698   19727402784                    50042               ATK MK                      4458000000        4458000000                 0        4458000000        4458000000                 0ZER                                               MUR                   100000CR
DTLIN23011698   19727402784                    50042               TTX TAX                     1821400000        1821400000                 0        1821400000        1821400000                 0ZER                                               MUR                   100000CR
DTLIN23011698   19727402784                    62121               ATK                          217391000         217391000                 0         217391000         217391000                 0STD                                               MUR                   100000CR
DTLIN23011698   19727402784                    26060092                                          32609000          32609000                 0          32609000          32609000                 0STD                                               MUR                   100000CR
HTLCAS005              IN23001699  0507202305072023        3825000000        3792391000          32609000        3825000000        2944500000          3260900012401Invoice        MUR                   100000STD                                               
DTLIN23001699   09727402786                    25042               SHLD        50042           3825000000        3825000000          32609000        3825000000        3825000000          32609000STD                                               MUR                   100000DR
DTLIN23001699   09727402786                    50042               ATK UK                      2944500000        2944500000                 0        2944500000        2944500000                 0ZER                                               MUR                   100000CR
DTLIN23001699   09727402786                    50042               TTX TAX                      630500000         630500000                 0         630500000         630500000                 0ZER                                               MUR                   100000CR
DTLIN23001699   09727402786                    62121               ATK                          217391000         217391000                 0         217391000         217391000                 0STD                                               MUR                   100000CR
DTLIN23001699   09727402786                    26060092                                          32609000          32609000                 0          32609000          32609000                 0STD                                               MUR                   100000CR
HTLCAS005              IN23011699  0507202305072023        3825000000        3792391000          32609000        3825000000        2944500000          3260900012401Invoice        MUR                   100000STD                                               
DTLIN23011699   19727402787                    25042               SHLD        50042           3825000000        3825000000          32609000        3825000000        3825000000          32609000STD                                               MUR                   100000DR
DTLIN23011699   19727402787                    50042               ATK UK                      2944500000        2944500000                 0        2944500000        2944500000                 0ZER                                               MUR                   100000CR
DTLIN23011699   19727402787                    50042               TTX TAX                      630500000         630500000                 0         630500000         630500000                 0ZER                                               MUR                   100000CR
DTLIN23011699   19727402787                    62121               ATK                          217391000         217391000                 0         217391000         217391000                 0STD                                               MUR                   100000CR
DTLIN23011699   19727402787                    26060092                                          32609000          32609000                 0          32609000          32609000                 0STD                                               MUR                   100000CR
HTLCAS005              IN23001700  0507202305072023        4664800000        4632191000          32609000        4664800000        3480000000          3260900012401Invoice        MUR                   100000STD                                               
DTLIN23001700   09727402785                    25042               SHLD        50042           4664800000        4664800000          32609000        4664800000        4664800000          32609000STD                                               MUR                   100000DR
DTLIN23001700   09727402785                    50042               ATK UK                      3480000000        3480000000                 0        3480000000        3480000000                 0ZER                                               MUR                   100000CR
DTLIN23001700   09727402785                    50042               TTX TAX                      934800000         934800000                 0         934800000         934800000                 0ZER                                               MUR                   100000CR
DTLIN23001700   09727402785                    62121               ATK                          217391000         217391000                 0         217391000         217391000                 0STD                                               MUR                   100000CR
DTLIN23001700   09727402785                    26060092                                          32609000          32609000                 0          32609000          32609000                 0STD                                               MUR                   100000CR
HTLCAS005              IN23001701  0507202305072023        1430700000        1426200000           4500000        1430700000         458000000           450000012401Invoice        MUR                   100000STD                                               
DTLIN23001701   09727402793                    25042               SHLD        50042           1430700000        1430700000           4500000        1430700000        1430700000           4500000STD                                               MUR                   100000DR
DTLIN23001701   09727402793                    50042               ATK MK                       458000000         458000000                 0         458000000         458000000                 0ZER                                               MUR                   100000CR
DTLIN23001701   09727402793                    50042               TTX TAX                      938200000         938200000                 0         938200000         938200000                 0ZER                                               MUR                   100000CR
DTLIN23001701   09727402793                    62121               ATK                           30000000          30000000                 0          30000000          30000000                 0STD                                               MUR                   100000CR
DTLIN23001701   09727402793                    26060092                                           4500000           4500000                 0           4500000           4500000                 0STD                                               MUR                   100000CR
HTLCAS005              IN23011701  0507202305072023        1360900000        1356400000           4500000        1360900000         824500000           450000012401Invoice        MUR                   100000STD                                               
DTLIN23011701   19727402794                    25042               SHLD        50042           1360900000        1360900000           4500000        1360900000        1360900000           4500000STD                                               MUR                   100000DR
DTLIN23011701   19727402794                    50042               ATK MK                       824500000         824500000                 0         824500000         824500000                 0ZER                                               MUR                   100000CR
DTLIN23011701   19727402794                    50042               TTX TAX                      501900000         501900000                 0         501900000         501900000                 0ZER                                               MUR                   100000CR
DTLIN23011701   19727402794                    62121               ATK                           30000000          30000000                 0          30000000          30000000                 0STD                                               MUR                   100000CR
DTLIN23011701   19727402794                    26060092                                           4500000           4500000                 0           4500000           4500000                 0STD                                               MUR                   100000CR
HTLHOL005              IN23001702  0707202307072023        2500000000        2500000000                 0        2500000000        2500000000                 012401Invoice        MUR                   100000ZER                                               
DTLIN23001702   04203110833                    25042               NULL        50042           2500000000        2500000000                 0        2500000000        2500000000                 0ZER                                               MUR                   100000DR
DTLIN23001702   04203110833                    50042               ATK EK                      2500000000        2500000000                 0        2500000000        2500000000                 0ZER                                               MUR                   100000CR
HTLIBL010              IN23001703  0707202304072023        2415200000        2395635000          19565000        2415200000        1100000000          1956500012401Invoice        MUR                   100000STD                                               
DTLIN23001703   09727402765                    25042               HOAS        50042           2415200000        2415200000          19565000        2415200000        2415200000          19565000STD                                               MUR                   100000DR
DTLIN23001703   09727402765                    50042               ATK MK                      1100000000        1100000000                 0        1100000000        1100000000                 0ZER                                               MUR                   100000CR
DTLIN23001703   09727402765                    50042               TTX TAX                     1165200000        1165200000                 0        1165200000        1165200000                 0ZER                                               MUR                   100000CR
DTLIN23001703   09727402765                    62121               ATK                          130435000         130435000                 0         130435000         130435000                 0STD                                               MUR                   100000CR
DTLIN23001703   09727402765                    26060092                                          19565000          19565000                 0          19565000          19565000                 0STD                                               MUR                   100000CR
HTLIBL017              IN23001704  0707202307072023        4926700000        4920178000           6522000        4926700000        3046000000           652200012401Invoice        MUR                   100000STD                                               
DTLIN23001704   09727402805                    25042               NULL        50042           4926700000        4926700000           6522000        4926700000        4926700000           6522000STD                                               MUR                   100000DR
DTLIN23001704   09727402805                    50042               ATK KQ                      3046000000        3046000000                 0        3046000000        3046000000                 0ZER                                               MUR                   100000CR
DTLIN23001704   09727402805                    50042               TTX TAX                     1830700000        1830700000                 0        1830700000        1830700000                 0ZER                                               MUR                   100000CR
DTLIN23001704   09727402805                    62121               ATK                           43478000          43478000                 0          43478000          43478000                 0STD                                               MUR                   100000CR
DTLIN23001704   09727402805                    26060092                                           6522000           6522000                 0           6522000           6522000                 0STD                                               MUR                   100000CR
HTLLUX002              IN23001705  0707202301072023         288100000         288100000                 0         288100000         288100000                 012401Invoice        MUR                   100000ZER                                               
DTLIN23001705   00000018296                    25042               NULL        50042            288100000         288100000                 0         288100000         288100000                 0ZER                                               MUR                   100000DR
DTLIN23001705   00000018296                    50042               INS MEI                      288100000         288100000                 0         288100000         288100000                 0ZER                                               MUR                   100000CR
HTLCAS005              IN23001706  0707202307072023        1291300000        1291300000                 0        1291300000        1291300000                 012401Invoice        MUR                   100000ZER                                               
DTLIN23001706   00000106862                    25042               SHLDHTO     50042           1291300000        1291300000                 0        1291300000        1291300000                 0ZER                                               MUR                   100000DR
DTLIN23001706   00000106862                    50042               HTO SIN                     1291300000        1291300000                 0        1291300000        1291300000                 0ZER                                               MUR                   100000CR
HTLCAS005              IN23001707  0707202307072023        4060000000        4060000000                 0        4060000000        4060000000                 012401Invoice        MUR                   100000ZER                                               
DTLIN23001707   00000106863                    25042               SHLDHTO     50042           4060000000        4060000000                 0        4060000000        4060000000                 0ZER                                               MUR                   100000DR
DTLIN23001707   00000106863                    50042               HTO SIN                     4060000000        4060000000                 0        4060000000        4060000000                 0ZER                                               MUR                   100000CR
HTLCAS005              IN23001708  0707202307072023         860000000         860000000                 0         860000000         860000000                 012401Invoice        MUR                   100000ZER                                               
DTLIN23001708   00607202301                    25042               SHLD        50042            860000000         860000000                 0         860000000         860000000                 0ZER                                               MUR                   100000DR
DTLIN23001708   00607202301                    50042               ATK AF                       860000000         860000000                 0         860000000         860000000                 0ZER                                               MUR                   100000CR
HTLCAS005              IN23001709  0707202307072023         250000000         217391000          32609000         250000000                 0          3260900012401Invoice        MUR                   100000STD                                               
DTLIN23001709   09727402831                    25042               SHLD        50042            250000000         250000000          32609000         250000000         250000000          32609000STD                                               MUR                   100000DR
DTLIN23001709   09727402831                    62121               ATK                          217391000         217391000                 0         217391000         217391000                 0STD                                               MUR                   100000CR
DTLIN23001709   09727402831                    26060092                                          32609000          32609000                 0          32609000          32609000                 0STD                                               MUR                   100000CR
HTLSOM003              IN23001710  0707202307072023         100800000         100800000                 0         100800000         100800000                 012401Invoice        MUR                   100000ZER                                               
DTLIN23001710   00000018305                    25042               SHST        50042            100800000         100800000                 0         100800000         100800000                 0ZER                                               MUR                   100000DR
DTLIN23001710   00000018305                    50042               INS MEI                      100800000         100800000                 0         100800000         100800000                 0ZER                                               MUR                   100000CR
HTLSOM003              IN23001711  0707202307072023         100800000         100800000                 0         100800000         100800000                 012401Invoice        MUR                   100000ZER                                               
DTLIN23001711   00000018306                    25042               SHST        50042            100800000         100800000                 0         100800000         100800000                 0ZER                                               MUR                   100000DR
DTLIN23001711   00000018306                    50042               INS MEI                      100800000         100800000                 0         100800000         100800000                 0ZER                                               MUR                   100000CR
HTLENN001              IN23001712  0807202308072023         244700000         244700000                 0         244700000         244700000                 012401Invoice        MUR                   100000ZER                                               
DTLIN23001712   00000018302                    25042               NULL        50042            244700000         244700000                 0         244700000         244700000                 0ZER                                               MUR                   100000DR
DTLIN23001712   00000018302                    50042               INS MEI                      244700000         244700000                 0         244700000         244700000                 0ZER                                               MUR                   100000CR
HTLENN001              IN23001713  0807202308072023         207500000         207500000                 0         207500000         207500000                 012401Invoice        MUR                   100000ZER                                               
DTLIN23001713   00000018303                    25042               NULL        50042            207500000         207500000                 0         207500000         207500000                 0ZER                                               MUR                   100000DR
DTLIN23001713   00000018303                    50042               INS MEI                      207500000         207500000                 0         207500000         207500000                 0ZER                                               MUR                   100000CR
HTLCAS005              IN23001714  0707202307072023        9949300000        9910170000          39130000        9949300000        5791000000          3913000012401Invoice        MUR                   100000STD                                               
DTLIN23001714   09727411437                    25042               SHLD        50042           9949300000        9949300000          39130000        9949300000        9949300000          39130000STD                                               MUR                   100000DR
DTLIN23001714   09727411437                    50042               ATK EK                      5791000000        5791000000                 0        5791000000        5791000000                 0ZER                                               MUR                   100000CR
DTLIN23001714   09727411437                    50042               TTX TAX                     3858300000        3858300000                 0        3858300000        3858300000                 0ZER                                               MUR                   100000CR
DTLIN23001714   09727411437                    62121               ATK                          260870000         260870000                 0         260870000         260870000                 0STD                                               MUR                   100000CR
DTLIN23001714   09727411437                    26060092                                          39130000          39130000                 0          39130000          39130000                 0STD                                               MUR                   100000CR
HTLIBL011              IN23001715  0807202308072023        3649200000        3649200000                 0        3649200000        3649200000                 012401Invoice        MUR                   100000ZER                                               
DTLIN23001715   00000106864                    25042               PHMTHTO     50042           3649200000        3649200000                 0        3649200000        3649200000                 0ZER                                               MUR                   100000DR
DTLIN23001715   00000106864                    50042               HTO SIN                     3649200000        3649200000                 0        3649200000        3649200000                 0ZER                                               MUR                   100000CR
HTLIBL011              IN23011715  0807202307072023        5197800000        5178235000          19565000        5197800000        3418500000          1956500012401Invoice        MUR                   100000STD                                               
DTLIN23011715   19727411436                    25042               PHMT        50042           5197800000        5197800000          19565000        5197800000        5197800000          19565000STD                                               MUR                   100000DR
DTLIN23011715   19727411436                    50042               ATK KQ                      3418500000        3418500000                 0        3418500000        3418500000                 0ZER                                               MUR                   100000CR
DTLIN23011715   19727411436                    50042               TTX TAX                     1629300000        1629300000                 0        1629300000        1629300000                 0ZER                                               MUR                   100000CR
DTLIN23011715   19727411436                    62121               ATK                          130435000         130435000                 0         130435000         130435000                 0STD                                               MUR                   100000CR
DTLIN23011715   19727411436                    26060092                                          19565000          19565000                 0          19565000          19565000                 0STD                                               MUR                   100000CR
HTLIBL011              IN23021715  0807202308072023         100800000         100800000                 0         100800000         100800000                 012401Invoice        MUR                   100000ZER                                               
DTLIN23021715   20000018301                    25042               PHMT        50042            100800000         100800000                 0         100800000         100800000                 0ZER                                               MUR                   100000DR
DTLIN23021715   20000018301                    50042               INS MEI                      100800000         100800000                 0         100800000         100800000                 0ZER                                               MUR                   100000CR
HTLCAS005              IN23001716  0707202307072023        3808000000        3775391000          32609000        3808000000        2929500000          3260900012401Invoice        MUR                   100000STD                                               
DTLIN23001716   09727402834                    25042               SHLD        50042           3808000000        3808000000          32609000        3808000000        3808000000          32609000STD                                               MUR                   100000DR
DTLIN23001716   09727402834                    50042               ATK UK                      2929500000        2929500000                 0        2929500000        2929500000                 0ZER                                               MUR                   100000CR
DTLIN23001716   09727402834                    50042               TTX TAX                      628500000         628500000                 0         628500000         628500000                 0ZER                                               MUR                   100000CR
DTLIN23001716   09727402834                    62121               ATK                          217391000         217391000                 0         217391000         217391000                 0STD                                               MUR                   100000CR
DTLIN23001716   09727402834                    26060092                                          32609000          32609000                 0          32609000          32609000                 0STD                                               MUR                   100000CR
HTLCAS005              IN23001717  0707202307072023        2069900000        2039900000          30000000        2069900000         140500000          3000000012401Invoice        MUR                   100000STD                                               
DTLIN23001717   09727402827                    25042               SHLD        50042           2069900000        2069900000          30000000        2069900000        2069900000          30000000STD                                               MUR                   100000DR
DTLIN23001717   09727402827                    50042               ATK MK                       140500000         140500000                 0         140500000         140500000                 0ZER                                               MUR                   100000CR
DTLIN23001717   09727402827                    50042               TTX TAX                     1699400000        1699400000                 0        1699400000        1699400000                 0ZER                                               MUR                   100000CR
DTLIN23001717   09727402827                    62121               ATK                          200000000         200000000                 0         200000000         200000000                 0STD                                               MUR                   100000CR
DTLIN23001717   09727402827                    26060092                                          30000000          30000000                 0          30000000          30000000                 0STD                                               MUR                   100000CR
HTLCAS005              IN23011717  0707202307072023        5069900000        5039900000          30000000        5069900000        3140500000          3000000012401Invoice        MUR                   100000STD                                               
DTLIN23011717   19727402826                    25042               SHLD        50042           5069900000        5069900000          30000000        5069900000        5069900000          30000000STD                                               MUR                   100000DR
DTLIN23011717   19727402826                    50042               ATK MK                      3140500000        3140500000                 0        3140500000        3140500000                 0ZER                                               MUR                   100000CR
DTLIN23011717   19727402826                    50042               TTX TAX                     1699400000        1699400000                 0        1699400000        1699400000                 0ZER                                               MUR                   100000CR
DTLIN23011717   19727402826                    62121               ATK                          200000000         200000000                 0         200000000         200000000                 0STD                                               MUR                   100000CR
DTLIN23011717   19727402826                    26060092                                          30000000          30000000                 0          30000000          30000000                 0STD                                               MUR                   100000CR
HTLPIC001              IN23001718  0507202305072023          37700000          33200000           4500000          37700000           3200000           450000012401Invoice        MUR                   100000STD                                               
DTLIN23001718   05013791964                    25042               FDPB        50042             37700000          37700000           4500000          37700000          37700000           4500000STD                                               MUR                   100000DR
DTLIN23001718   05013791964                    50042               ATK UU                         3200000           3200000                 0           3200000           3200000                 0ZER                                               MUR                   100000CR
DTLIN23001718   05013791964                    62121               ATK                           30000000          30000000                 0          30000000          30000000                 0STD                                               MUR                   100000CR
DTLIN23001718   05013791964                    26060092                                           4500000           4500000                 0           4500000           4500000                 0STD                                               MUR                   100000CR
HTLOCO001              IN23001719  0207202302072023         740500000         733000000           7500000         740500000         309000000           750000012401Invoice        MUR                   100000STD                                               
DTLIN23001719   09727402747                    25042               NULL        50042            740500000         740500000           7500000         740500000         740500000           7500000STD                                               MUR                   100000DR
DTLIN23001719   09727402747                    50042               ATK MK                       309000000         309000000                 0         309000000         309000000                 0ZER                                               MUR                   100000CR
DTLIN23001719   09727402747                    50042               TTX TAX                      374000000         374000000                 0         374000000         374000000                 0ZER                                               MUR                   100000CR
DTLIN23001719   09727402747                    62121               ATK                           50000000          50000000                 0          50000000          50000000                 0STD                                               MUR                   100000CR
DTLIN23001719   09727402747                    26060092                                           7500000           7500000                 0           7500000           7500000                 0STD                                               MUR                   100000CR
HTLOCO001              IN23011719  0207202302072023         740500000         733000000           7500000         740500000         309000000           750000012401Invoice        MUR                   100000STD                                               
DTLIN23011719   19727402748                    25042               NULL        50042            740500000         740500000           7500000         740500000         740500000           7500000STD                                               MUR                   100000DR
DTLIN23011719   19727402748                    50042               ATK MK                       309000000         309000000                 0         309000000         309000000                 0ZER                                               MUR                   100000CR
DTLIN23011719   19727402748                    50042               TTX TAX                      374000000         374000000                 0         374000000         374000000                 0ZER                                               MUR                   100000CR
DTLIN23011719   19727402748                    62121               ATK                           50000000          50000000                 0          50000000          50000000                 0STD                                               MUR                   100000CR
DTLIN23011719   19727402748                    26060092                                           7500000           7500000                 0           7500000           7500000                 0STD                                               MUR                   100000CR
HTLPIC001              IN23001720  0307202303072023          40100000          35600000           4500000          40100000                 0           450000012401Invoice        MUR                   100000STD                                               
DTLIN23001720   09727402759                    25042               FDPB        50042             40100000          40100000           4500000          40100000          40100000           4500000STD                                               MUR                   100000DR
DTLIN23001720   09727402759                    50042               TTX TAX                        5600000           5600000                 0           5600000           5600000                 0ZER                                               MUR                   100000CR
DTLIN23001720   09727402759                    62121               ATK                           30000000          30000000                 0          30000000          30000000                 0STD                                               MUR                   100000CR
DTLIN23001720   09727402759                    26060092                                           4500000           4500000                 0           4500000           4500000                 0STD                                               MUR                   100000CR
HTLPIC001              IN23001721  0407202304072023        5500000000        5470000000          30000000        5500000000        3225900000          3000000012401Invoice        MUR                   100000STD                                               
DTLIN23001721   09727402764                    25042               FDPB        50042           5500000000        5500000000          30000000        5500000000        5500000000          30000000STD                                               MUR                   100000DR
DTLIN23001721   09727402764                    50042               ATK MK                      3225900000        3225900000                 0        3225900000        3225900000                 0ZER                                               MUR                   100000CR
DTLIN23001721   09727402764                    50042               TTX TAX                     2044100000        2044100000                 0        2044100000        2044100000                 0ZER                                               MUR                   100000CR
DTLIN23001721   09727402764                    62121               ATK                          200000000         200000000                 0         200000000         200000000                 0STD                                               MUR                   100000CR
DTLIN23001721   09727402764                    26060092                                          30000000          30000000                 0          30000000          30000000                 0STD                                               MUR                   100000CR
HTLCAS006              IN23001722  1007202305072023        7068600000        7038600000          30000000        7068600000        4553500000          3000000012401Invoice        MUR                   100000STD                                               
DTLIN23001722   09727402771                    25042               NULL        50042           7068600000        7068600000          30000000        7068600000        7068600000          30000000STD                                               MUR                   100000DR
DTLIN23001722   09727402771                    50042               ATK EK                      4553500000        4553500000                 0        4553500000        4553500000                 0ZER                                               MUR                   100000CR
DTLIN23001722   09727402771                    50042               TTX TAX                     2285100000        2285100000                 0        2285100000        2285100000                 0ZER                                               MUR                   100000CR
DTLIN23001722   09727402771                    62121               ATK                          200000000         200000000                 0         200000000         200000000                 0STD                                               MUR                   100000CR
DTLIN23001722   09727402771                    26060092                                          30000000          30000000                 0          30000000          30000000                 0STD                                               MUR                   100000CR
HTLPIC001              IN23001723  0507202305072023        2050000000        2030435000          19565000        2050000000        1104400000          1956500012401Invoice        MUR                   100000STD                                               
DTLIN23001723   09727402782                    25042               FDPB        50042           2050000000        2050000000          19565000        2050000000        2050000000          19565000STD                                               MUR                   100000DR
DTLIN23001723   09727402782                    50042               ATK MK                      1104400000        1104400000                 0        1104400000        1104400000                 0ZER                                               MUR                   100000CR
DTLIN23001723   09727402782                    50042               TTX TAX                      795600000         795600000                 0         795600000         795600000                 0ZER                                               MUR                   100000CR
DTLIN23001723   09727402782                    62121               ATK                          130435000         130435000                 0         130435000         130435000                 0STD                                               MUR                   100000CR
DTLIN23001723   09727402782                    26060092                                          19565000          19565000                 0          19565000          19565000                 0STD                                               MUR                   100000CR
HTLPIC001              IN23011723  0507202305072023        2050000000        2030435000          19565000        2050000000        1104400000          1956500012401Invoice        MUR                   100000STD                                               
DTLIN23011723   19727402781                    25042               FDPB        50042           2050000000        2050000000          19565000        2050000000        2050000000          19565000STD                                               MUR                   100000DR
DTLIN23011723   19727402781                    50042               ATK MK                      1104400000        1104400000                 0        1104400000        1104400000                 0ZER                                               MUR                   100000CR
DTLIN23011723   19727402781                    50042               TTX TAX                      795600000         795600000                 0         795600000         795600000                 0ZER                                               MUR                   100000CR
DTLIN23011723   19727402781                    62121               ATK                          130435000         130435000                 0         130435000         130435000                 0STD                                               MUR                   100000CR
DTLIN23011723   19727402781                    26060092                                          19565000          19565000                 0          19565000          19565000                 0STD                                               MUR                   100000CR
HTLPIC001              IN23021723  0507202305072023        2050000000        2030435000          19565000        2050000000        1104400000          1956500012401Invoice        MUR                   100000STD                                               
DTLIN23021723   29727402779                    25042               FDPB        50042           2050000000        2050000000          19565000        2050000000        2050000000          19565000STD                                               MUR                   100000DR
DTLIN23021723   29727402779                    50042               ATK MK                      1104400000        1104400000                 0        1104400000        1104400000                 0ZER                                               MUR                   100000CR
DTLIN23021723   29727402779                    50042               TTX TAX                      795600000         795600000                 0         795600000         795600000                 0ZER                                               MUR                   100000CR
DTLIN23021723   29727402779                    62121               ATK                          130435000         130435000                 0         130435000         130435000                 0STD                                               MUR                   100000CR
DTLIN23021723   29727402779                    26060092                                          19565000          19565000                 0          19565000          19565000                 0STD                                               MUR                   100000CR
HTLPIC001              IN23031723  0507202305072023        2050000000        2030435000          19565000        2050000000        1104400000          1956500012401Invoice        MUR                   100000STD                                               
DTLIN23031723   39727402778                    25042               FDPB        50042           2050000000        2050000000          19565000        2050000000        2050000000          19565000STD                                               MUR                   100000DR
DTLIN23031723   39727402778                    50042               ATK MK                      1104400000        1104400000                 0        1104400000        1104400000                 0ZER                                               MUR                   100000CR
DTLIN23031723   39727402778                    50042               TTX TAX                      795600000         795600000                 0         795600000         795600000                 0ZER                                               MUR                   100000CR
DTLIN23031723   39727402778                    62121               ATK                          130435000         130435000                 0         130435000         130435000                 0STD                                               MUR                   100000CR
DTLIN23031723   39727402778                    26060092                                          19565000          19565000                 0          19565000          19565000                 0STD                                               MUR                   100000CR
HTLPIC001              IN23041723  0507202305072023        2050000000        2030435000          19565000        2050000000        1104400000          1956500012401Invoice        MUR                   100000STD                                               
DTLIN23041723   49727402780                    25042               FDPB        50042           2050000000        2050000000          19565000        2050000000        2050000000          19565000STD                                               MUR                   100000DR
DTLIN23041723   49727402780                    50042               ATK MK                      1104400000        1104400000                 0        1104400000        1104400000                 0ZER                                               MUR                   100000CR
DTLIN23041723   49727402780                    50042               TTX TAX                      795600000         795600000                 0         795600000         795600000                 0ZER                                               MUR                   100000CR
DTLIN23041723   49727402780                    62121               ATK                          130435000         130435000                 0         130435000         130435000                 0STD                                               MUR                   100000CR
DTLIN23041723   49727402780                    26060092                                          19565000          19565000                 0          19565000          19565000                 0STD                                               MUR                   100000CR
HTLCAS005              IN23001724  1007202310072023         100800000         100800000                 0         100800000         100800000                 012401Invoice        MUR                   100000ZER                                               
DTLIN23001724   00000018304                    25042               SHLD        50042            100800000         100800000                 0         100800000         100800000                 0ZER                                               MUR                   100000DR
DTLIN23001724   00000018304                    50042               INS MEI                      100800000         100800000                 0         100800000         100800000                 0ZER                                               MUR                   100000CR
HTLCAS005              IN23011724  1007202310072023        5730500000        5700500000          30000000        5730500000        3569800000          3000000012401Invoice        MUR                   100000STD                                               
DTLIN23011724   19727411444                    25042               SHLD        50042           5730500000        5730500000          30000000        5730500000        5730500000          30000000STD                                               MUR                   100000DR
DTLIN23011724   19727411444                    50042               ATK KF                      3569800000        3569800000                 0        3569800000        3569800000                 0ZER                                               MUR                   100000CR
DTLIN23011724   19727411444                    50042               TTX TAX                     1930700000        1930700000                 0        1930700000        1930700000                 0ZER                                               MUR                   100000CR
DTLIN23011724   19727411444                    62121               ATK                          200000000         200000000                 0         200000000         200000000                 0STD                                               MUR                   100000CR
DTLIN23011724   19727411444                    26060092                                          30000000          30000000                 0          30000000          30000000                 0STD                                               MUR                   100000CR
HTLIBL012              IN23001725  0707202306072023        6610000000        6580000000          30000000        6610000000        4322000000          3000000012401Invoice        MUR                   100000STD                                               
DTLIN23001725   09727402795                    25042               FDBR        50042           6610000000        6610000000          30000000        6610000000        6610000000          30000000STD                                               MUR                   100000DR
DTLIN23001725   09727402795                    50042               ATK MK                      4322000000        4322000000                 0        4322000000        4322000000                 0ZER                                               MUR                   100000CR
DTLIN23001725   09727402795                    50042               TTX TAX                     2058000000        2058000000                 0        2058000000        2058000000                 0ZER                                               MUR                   100000CR
DTLIN23001725   09727402795                    62121               ATK                          200000000         200000000                 0         200000000         200000000                 0STD                                               MUR                   100000CR
DTLIN23001725   09727402795                    26060092                                          30000000          30000000                 0          30000000          30000000                 0STD                                               MUR                   100000CR
HTLIBL012              IN23011725  0707202307072023        3680000000        3660435000          19565000        3680000000        2775200000          1956500012401Invoice        MUR                   100000STD                                               
DTLIN23011725   19727402816                    25042               FDBR        50042           3680000000        3680000000          19565000        3680000000        3680000000          19565000STD                                               MUR                   100000DR
DTLIN23011725   19727402816                    50042               ATK TK                      2775200000        2775200000                 0        2775200000        2775200000                 0ZER                                               MUR                   100000CR
DTLIN23011725   19727402816                    50042               TTX TAX                      754800000         754800000                 0         754800000         754800000                 0ZER                                               MUR                   100000CR
DTLIN23011725   19727402816                    62121               ATK                          130435000         130435000                 0         130435000         130435000                 0STD                                               MUR                   100000CR
DTLIN23011725   19727402816                    26060092                                          19565000          19565000                 0          19565000          19565000                 0STD                                               MUR                   100000CR
HTLIBL012              IN23021725  0707202307072023        1040000000        1032500000           7500000        1040000000         676300000           750000012401Invoice        MUR                   100000STD                                               
DTLIN23021725   29727402819                    25042               FDBR        50042           1040000000        1040000000           7500000        1040000000        1040000000           7500000STD                                               MUR                   100000DR
DTLIN23021725   29727402819                    50042               ATK AF                       676300000         676300000                 0         676300000         676300000                 0ZER                                               MUR                   100000CR
DTLIN23021725   29727402819                    50042               TTX TAX                      306200000         306200000                 0         306200000         306200000                 0ZER                                               MUR                   100000CR
DTLIN23021725   29727402819                    62121               ATK                           50000000          50000000                 0          50000000          50000000                 0STD                                               MUR                   100000CR
DTLIN23021725   29727402819                    26060092                                           7500000           7500000                 0           7500000           7500000                 0STD                                               MUR                   100000CR
HTLIBL012              IN23001726  1007202310072023         122700000         122700000                 0         122700000         122700000                 012401Invoice        MUR                   100000ZER                                               
DTLIN23001726   00000018312                    25042               FDBR        50042            122700000         122700000                 0         122700000         122700000                 0ZER                                               MUR                   100000DR
DTLIN23001726   00000018312                    50042               INS MEI                      122700000         122700000                 0         122700000         122700000                 0ZER                                               MUR                   100000CR
HTLIBL012              IN23001727  0607202306072023        1450000000        1443478000           6522000        1450000000         670500000           652200012401Invoice        MUR                   100000STD                                               
DTLIN23001727   09727402799                    25042               FDBR        50042           1450000000        1450000000           6522000        1450000000        1450000000           6522000STD                                               MUR                   100000DR
DTLIN23001727   09727402799                    50042               ATK UU                       670500000         670500000                 0         670500000         670500000                 0ZER                                               MUR                   100000CR
DTLIN23001727   09727402799                    50042               TTX TAX                      729500000         729500000                 0         729500000         729500000                 0ZER                                               MUR                   100000CR
DTLIN23001727   09727402799                    62121               ATK                           43478000          43478000                 0          43478000          43478000                 0STD                                               MUR                   100000CR
DTLIN23001727   09727402799                    26060092                                           6522000           6522000                 0           6522000           6522000                 0STD                                               MUR                   100000CR
HTLPIC001              IN23001728  0707202307072023        1211300000        1206800000           4500000        1211300000         880000000           450000012401Invoice        MUR                   100000STD                                               
DTLIN23001728   09727402812                    25042               FDPB        50042           1211300000        1211300000           4500000        1211300000        1211300000           4500000STD                                               MUR                   100000DR
DTLIN23001728   09727402812                    50042               ATK UU                       880000000         880000000                 0         880000000         880000000                 0ZER                                               MUR                   100000CR
DTLIN23001728   09727402812                    50042               TTX TAX                      296800000         296800000                 0         296800000         296800000                 0ZER                                               MUR                   100000CR
DTLIN23001728   09727402812                    62121               ATK                           30000000          30000000                 0          30000000          30000000                 0STD                                               MUR                   100000CR
DTLIN23001728   09727402812                    26060092                                           4500000           4500000                 0           4500000           4500000                 0STD                                               MUR                   100000CR
HTLPIC001              IN23011728  0707202307072023        1211300000        1206800000           4500000        1211300000         880000000           450000012401Invoice        MUR                   100000STD                                               
DTLIN23011728   19727402813                    25042               FDPB        50042           1211300000        1211300000           4500000        1211300000        1211300000           4500000STD                                               MUR                   100000DR
DTLIN23011728   19727402813                    50042               ATK UU                       880000000         880000000                 0         880000000         880000000                 0ZER                                               MUR                   100000CR
DTLIN23011728   19727402813                    50042               TTX TAX                      296800000         296800000                 0         296800000         296800000                 0ZER                                               MUR                   100000CR
DTLIN23011728   19727402813                    62121               ATK                           30000000          30000000                 0          30000000          30000000                 0STD                                               MUR                   100000CR
DTLIN23011728   19727402813                    26060092                                           4500000           4500000                 0           4500000           4500000                 0STD                                               MUR                   100000CR
HTLPIC001              IN23021728  0707202307072023        1354800000        1350300000           4500000        1354800000         820500000           450000012401Invoice        MUR                   100000STD                                               
DTLIN23021728   29727402811                    25042               FDPB        50042           1354800000        1354800000           4500000        1354800000        1354800000           4500000STD                                               MUR                   100000DR
DTLIN23021728   29727402811                    50042               ATK MK                       820500000         820500000                 0         820500000         820500000                 0ZER                                               MUR                   100000CR
DTLIN23021728   29727402811                    50042               TTX TAX                      499800000         499800000                 0         499800000         499800000                 0ZER                                               MUR                   100000CR
DTLIN23021728   29727402811                    62121               ATK                           30000000          30000000                 0          30000000          30000000                 0STD                                               MUR                   100000CR
DTLIN23021728   29727402811                    26060092                                           4500000           4500000                 0           4500000           4500000                 0STD                                               MUR                   100000CR
HTLPIC001              IN23031728  0707202307072023        1354800000        1350300000           4500000        1354800000         820500000           450000012401Invoice        MUR                   100000STD                                               
DTLIN23031728   39727402810                    25042               FDPB        50042           1354800000        1354800000           4500000        1354800000        1354800000           4500000STD                                               MUR                   100000DR
DTLIN23031728   39727402810                    50042               ATK MK                       820500000         820500000                 0         820500000         820500000                 0ZER                                               MUR                   100000CR
DTLIN23031728   39727402810                    50042               TTX TAX                      499800000         499800000                 0         499800000         499800000                 0ZER                                               MUR                   100000CR
DTLIN23031728   39727402810                    62121               ATK                           30000000          30000000                 0          30000000          30000000                 0STD                                               MUR                   100000CR
DTLIN23031728   39727402810                    26060092                                           4500000           4500000                 0           4500000           4500000                 0STD                                               MUR                   100000CR
HTLIBL012              IN23001729  0707202307072023        4750000000        4729691000          20309000        4750000000        2965000000          2030900012401Invoice        MUR                   100000STD                                               
DTLIN23001729   09727411438                    25042               FDBR        50042           4750000000        4750000000          20309000        4750000000        4750000000          20309000STD                                               MUR                   100000DR
DTLIN23001729   09727411438                    50042               ATK KQ                      2965000000        2965000000                 0        2965000000        2965000000                 0ZER                                               MUR                   100000CR
DTLIN23001729   09727411438                    50042               TTX TAX                     1629300000        1629300000                 0        1629300000        1629300000                 0ZER                                               MUR                   100000CR
DTLIN23001729   09727411438                    62121               ATK                          135391000         135391000                 0         135391000         135391000                 0STD                                               MUR                   100000CR
DTLIN23001729   09727411438                    26060092                                          20309000          20309000                 0          20309000          20309000                 0STD                                               MUR                   100000CR
HTLCAS006              IN23001730  1007202310072023         175000000         152174000          22826000         175000000                 0          2282600012401Invoice        MUR                   100000STD                                               
DTLIN23001730   09727402749                    25042               NULL        50042            175000000         175000000          22826000         175000000         175000000          22826000STD                                               MUR                   100000DR
DTLIN23001730   09727402749                    62121               ATK                          152174000         152174000                 0         152174000         152174000                 0STD                                               MUR                   100000CR
DTLIN23001730   09727402749                    26060092                                          22826000          22826000                 0          22826000          22826000                 0STD                                               MUR                   100000CR
HTLCAS005              IN23001731  1007202310072023        3292800000        3273235000          19565000        3292800000        1270000000          1956500012401Invoice        MUR                   100000STD                                               
DTLIN23001731   09727411453                    25042               SHLD        50042           3292800000        3292800000          19565000        3292800000        3292800000          19565000STD                                               MUR                   100000DR
DTLIN23001731   09727411453                    50042               ATK MK                      1270000000        1270000000                 0        1270000000        1270000000                 0ZER                                               MUR                   100000CR
DTLIN23001731   09727411453                    50042               TTX TAX                     1872800000        1872800000                 0        1872800000        1872800000                 0ZER                                               MUR                   100000CR
DTLIN23001731   09727411453                    62121               ATK                          130435000         130435000                 0         130435000         130435000                 0STD                                               MUR                   100000CR
DTLIN23001731   09727411453                    26060092                                          19565000          19565000                 0          19565000          19565000                 0STD                                               MUR                   100000CR
HTLCAS005              IN23001732  1007202307072023        1133000000        1126478000           6522000        1133000000         218000000           652200012401Invoice        MUR                   100000STD                                               
DTLIN23001732   09727402817                    25042               SHLD        50042           1133000000        1133000000           6522000        1133000000        1133000000           6522000STD                                               MUR                   100000DR
DTLIN23001732   09727402817                    50042               ATK MK                       218000000         218000000                 0         218000000         218000000                 0ZER                                               MUR                   100000CR
DTLIN23001732   09727402817                    50042               TTX TAX                      865000000         865000000                 0         865000000         865000000                 0ZER                                               MUR                   100000CR
DTLIN23001732   09727402817                    62121               ATK                           43478000          43478000                 0          43478000          43478000                 0STD                                               MUR                   100000CR
DTLIN23001732   09727402817                    26060092                                           6522000           6522000                 0           6522000           6522000                 0STD                                               MUR                   100000CR
HTLCAS005              IN23011732  1007202310072023         101400000         101400000                 0         101400000         101400000                 012401Invoice        MUR                   100000ZER                                               
DTLIN23011732   10000018307                    25042               SHLD        50042            101400000         101400000                 0         101400000         101400000                 0ZER                                               MUR                   100000DR
DTLIN23011732   10000018307                    50042               INS MEI                      101400000         101400000                 0         101400000         101400000                 0ZER                                               MUR                   100000CR
HTLCAS005              IN23001733  1007202310072023        5784700000        5754700000          30000000        5784700000        3420000000          3000000012401Invoice        MUR                   100000STD                                               
DTLIN23001733   09727411448                    25042               SHLD        50042           5784700000        5784700000          30000000        5784700000        5784700000          30000000STD                                               MUR                   100000DR
DTLIN23001733   09727411448                    50042               ATK MK                      3420000000        3420000000                 0        3420000000        3420000000                 0ZER                                               MUR                   100000CR
DTLIN23001733   09727411448                    50042               TTX TAX                     2134700000        2134700000                 0        2134700000        2134700000                 0ZER                                               MUR                   100000CR
DTLIN23001733   09727411448                    62121               ATK                          200000000         200000000                 0         200000000         200000000                 0STD                                               MUR                   100000CR
DTLIN23001733   09727411448                    26060092                                          30000000          30000000                 0          30000000          30000000                 0STD                                               MUR                   100000CR
HTLIBL011              IN23001734  0607202306072023       10600000000       10567391000          32609000       10600000000        8357400000          3260900012401Invoice        MUR                   100000STD                                               
DTLIN23001734   09727402798                    25042               PHMT        50042          10600000000       10600000000          32609000       10600000000       10600000000          32609000STD                                               MUR                   100000DR
DTLIN23001734   09727402798                    50042               ATK EK                      8357400000        8357400000                 0        8357400000        8357400000                 0ZER                                               MUR                   100000CR
DTLIN23001734   09727402798                    50042               TTX TAX                     1992600000        1992600000                 0        1992600000        1992600000                 0ZER                                               MUR                   100000CR
DTLIN23001734   09727402798                    62121               ATK                          217391000         217391000                 0         217391000         217391000                 0STD                                               MUR                   100000CR
DTLIN23001734   09727402798                    26060092                                          32609000          32609000                 0          32609000          32609000                 0STD                                               MUR                   100000CR
