HTLTHE014              CR23000008  2401202304012023        4620900000        4620900000                 0        4620900000        2920500000                 012307Credit Note    MUR                   100000ZER                                               
DTLCR23000008   03917894697                    25042               NULL        50042           4620900000        4620900000                 0        4620900000        4620900000                 0ZER                                               MUR                   100000CR
DTLCR23000008   03917894697                    50042               ATK EK                      2920500000        2920500000                 0        2920500000        2920500000                 0ZER                                               MUR                   100000DR
DTLCR23000008   03917894697                    50042               TTX TAX                     2300400000        2300400000                 0        2300400000        2300400000                 0ZER                                               MUR                   100000DR
DTLCR23000008   03917894697                    50042                                            600000000         600000000                 0         600000000         600000000                 0ZER                                               MUR                   100000CR
HTLCAS006              IN23000159  2401202318012023         960000000         953478000           6522000         960000000         683700000           652200012307Invoice        MUR                   100000STD                                               
DTLIN23000159   06749555766                    25042               NULL        50042            960000000         960000000           6522000         960000000         960000000           6522000STD                                               MUR                   100000DR
DTLIN23000159   06749555766                    50042               ATK EK                       683700000         683700000                 0         683700000         683700000                 0ZER                                               MUR                   100000CR
DTLIN23000159   06749555766                    50042               TTX TAX                      226300000         226300000                 0         226300000         226300000                 0ZER                                               MUR                   100000CR
DTLIN23000159   06749555766                    62121               ATK                           43478000          43478000                 0          43478000          43478000                 0STD                                               MUR                   100000CR
DTLIN23000159   06749555766                    26060092                                           6522000           6522000                 0           6522000           6522000                 0STD                                               MUR                   100000CR
HTLVIV001              IN23000160  2401202324012023        1575000000        1369565000         205435000        1575000000        1369565000         20543500012307Invoice        MUR                   100000STD                                               
DTLIN23000160   00000106349                    25042                   HTO     50042           1575000000        1575000000         205435000        1575000000        1575000000         205435000STD                                               MUR                   100000DR
DTLIN23000160   00000106349                    50042               HTO COC                     1369565000        1369565000                 0        1369565000        1369565000                 0STD                                               MUR                   100000CR
DTLIN23000160   00000106349                    26060092                                         205435000         205435000                 0         205435000         205435000                 0STD                                               MUR                   100000CR
HTLIBL010              IN23000161  2001202320012023       14007300000       13955126000          52174000       14007300000       11074500000          5217400012307Invoice        MUR                   100000STD                                               
DTLIN23000161   06749555798                    25042               HOAS        50042          14007300000       14007300000          52174000       14007300000       14007300000          52174000STD                                               MUR                   100000DR
DTLIN23000161   06749555798                    50042               ATK MK                     11074500000       11074500000                 0       11074500000       11074500000                 0ZER                                               MUR                   100000CR
DTLIN23000161   06749555798                    50042               TTX TAX                     2532800000        2532800000                 0        2532800000        2532800000                 0ZER                                               MUR                   100000CR
DTLIN23000161   06749555798                    62121               ATK                          347826000         347826000                 0         347826000         347826000                 0STD                                               MUR                   100000CR
DTLIN23000161   06749555798                    26060092                                          52174000          52174000                 0          52174000          52174000                 0STD                                               MUR                   100000CR
HTLIBL023              IN23000162  2401202324012023         954400000         952117000           2283000         954400000         473100000           228300012307Invoice        MUR                   100000STD                                               
DTLIN23000162   06749555853                    25042               SHBP        50042            954400000         954400000           2283000         954400000         954400000           2283000STD                                               MUR                   100000DR
DTLIN23000162   06749555853                    50042               ATK MK                       473100000         473100000                 0         473100000         473100000                 0ZER                                               MUR                   100000CR
DTLIN23000162   06749555853                    50042               TTX TAX                      463800000         463800000                 0         463800000         463800000                 0ZER                                               MUR                   100000CR
DTLIN23000162   06749555853                    62121               ATK                           15217000          15217000                 0          15217000          15217000                 0STD                                               MUR                   100000CR
DTLIN23000162   06749555853                    26060092                                           2283000           2283000                 0           2283000           2283000                 0STD                                               MUR                   100000CR
HTLIBL023              IN23010162  2401202324012023         954400000         952117000           2283000         954400000         473100000           228300012307Invoice        MUR                   100000STD                                               
DTLIN23010162   16749555852                    25042               SHBP        50042            954400000         954400000           2283000         954400000         954400000           2283000STD                                               MUR                   100000DR
DTLIN23010162   16749555852                    50042               ATK MK                       473100000         473100000                 0         473100000         473100000                 0ZER                                               MUR                   100000CR
DTLIN23010162   16749555852                    50042               TTX TAX                      463800000         463800000                 0         463800000         463800000                 0ZER                                               MUR                   100000CR
DTLIN23010162   16749555852                    62121               ATK                           15217000          15217000                 0          15217000          15217000                 0STD                                               MUR                   100000CR
DTLIN23010162   16749555852                    26060092                                           2283000           2283000                 0           2283000           2283000                 0STD                                               MUR                   100000CR
HTLIBL023              IN23020162  2401202324012023         699500000         697217000           2283000         699500000         309000000           228300012307Invoice        MUR                   100000STD                                               
DTLIN23020162   26749555857                    25042               SHBP        50042            699500000         699500000           2283000         699500000         699500000           2283000STD                                               MUR                   100000DR
DTLIN23020162   26749555857                    50042               ATK MK                       309000000         309000000                 0         309000000         309000000                 0ZER                                               MUR                   100000CR
DTLIN23020162   26749555857                    50042               TTX TAX                      373000000         373000000                 0         373000000         373000000                 0ZER                                               MUR                   100000CR
DTLIN23020162   26749555857                    62121               ATK                           15217000          15217000                 0          15217000          15217000                 0STD                                               MUR                   100000CR
DTLIN23020162   26749555857                    26060092                                           2283000           2283000                 0           2283000           2283000                 0STD                                               MUR                   100000CR
HTLIBL023              IN23030162  2401202324012023         699500000         697217000           2283000         699500000         309000000           228300012307Invoice        MUR                   100000STD                                               
DTLIN23030162   36749555858                    25042               SHBP        50042            699500000         699500000           2283000         699500000         699500000           2283000STD                                               MUR                   100000DR
DTLIN23030162   36749555858                    50042               ATK MK                       309000000         309000000                 0         309000000         309000000                 0ZER                                               MUR                   100000CR
DTLIN23030162   36749555858                    50042               TTX TAX                      373000000         373000000                 0         373000000         373000000                 0ZER                                               MUR                   100000CR
DTLIN23030162   36749555858                    62121               ATK                           15217000          15217000                 0          15217000          15217000                 0STD                                               MUR                   100000CR
DTLIN23030162   36749555858                    26060092                                           2283000           2283000                 0           2283000           2283000                 0STD                                               MUR                   100000CR
HTLIBL011              IN23000163  2401202324012023        3943900000        3943900000                 0        3943900000        3943900000                 012307Invoice        MUR                   100000ZER                                               
DTLIN23000163   00000106350                    25042               PHMTHTO     50042           3943900000        3943900000                 0        3943900000        3943900000                 0ZER                                               MUR                   100000DR
DTLIN23000163   00000106350                    50042               HTO SIN                     3943900000        3943900000                 0        3943900000        3943900000                 0ZER                                               MUR                   100000CR
HTLIBL011              IN23010163  2401202321012023         100800000         100800000                 0         100800000         100800000                 012307Invoice        MUR                   100000ZER                                               
DTLIN23010163   10000017984                    25042               PHMT        50042            100800000         100800000                 0         100800000         100800000                 0ZER                                               MUR                   100000DR
DTLIN23010163   10000017984                    50042               INS MEI                      100800000         100800000                 0         100800000         100800000                 0ZER                                               MUR                   100000CR
HTLIBL011              IN23020163  2401202320012023        6285900000        6253291000          32609000        6285900000        3950500000          3260900012307Invoice        MUR                   100000STD                                               
DTLIN23020163   26749555828                    25042               PHMT        50042           6285900000        6285900000          32609000        6285900000        6285900000          32609000STD                                               MUR                   100000DR
DTLIN23020163   26749555828                    50042               ATK EK                      3950500000        3950500000                 0        3950500000        3950500000                 0ZER                                               MUR                   100000CR
DTLIN23020163   26749555828                    50042               TTX TAX                     2085400000        2085400000                 0        2085400000        2085400000                 0ZER                                               MUR                   100000CR
DTLIN23020163   26749555828                    62121               ATK                          217391000         217391000                 0         217391000         217391000                 0STD                                               MUR                   100000CR
DTLIN23020163   26749555828                    26060092                                          32609000          32609000                 0          32609000          32609000                 0STD                                               MUR                   100000CR
HTLIBL011              IN23030163  2401202324012023         489900000         476857000                 0         489900000         389900000                 012307Invoice        MUR                   100000STD                                               
DTLIN23030163   30000106351                    25042               PHMTHTO     50042            489900000         489900000          13043000         489900000         489900000          13043000STD                                               MUR                   100000DR
DTLIN23030163   30000106351                    50042               HTO SIN                      389900000         389900000                 0         389900000         389900000                 0ZER                                               MUR                   100000CR
DTLIN23030163   30000106351                    62121               ATK                           86957000          86957000                 0          86957000          86957000                 0STD                                               MUR                   100000CR
DTLIN23030163   30000106351                    26060092                                          13043000          13043000                 0          13043000          13043000                 0STD                                               MUR                   100000CR
HTLCAS006              IN23000164  2401202323012023         100800000         100800000                 0         100800000         100800000                 012307Invoice        MUR                   100000ZER                                               
DTLIN23000164   00000017988                    25042               NULL        50042            100800000         100800000                 0         100800000         100800000                 0ZER                                               MUR                   100000DR
DTLIN23000164   00000017988                    50042               INS MEI                      100800000         100800000                 0         100800000         100800000                 0ZER                                               MUR                   100000CR
HTLCAS006              IN23000165  2401202318012023          50000000          43478000           6522000          50000000                 0           652200012307Invoice        MUR                   100000STD                                               
DTLIN23000165   06749555771                    25042               NULL        50042             50000000          50000000           6522000          50000000          50000000           6522000STD                                               MUR                   100000DR
DTLIN23000165   06749555771                    62121               ATK                           43478000          43478000                 0          43478000          43478000                 0STD                                               MUR                   100000CR
DTLIN23000165   06749555771                    26060092                                           6522000           6522000                 0           6522000           6522000                 0STD                                               MUR                   100000CR
HTLCAS005              IN23000166  2401202324012023        4056000000        4056000000                 0        4056000000        4056000000                 012307Invoice        MUR                   100000ZER                                               
DTLIN23000166   00000106352                    25042               SHLDHTO     50042           4056000000        4056000000                 0        4056000000        4056000000                 0ZER                                               MUR                   100000DR
DTLIN23000166   00000106352                    50042               HTO SUN                     4056000000        4056000000                 0        4056000000        4056000000                 0ZER                                               MUR                   100000CR
HTLPIC001              IN23000167  2301202323012023        1400000000        1395500000           4500000        1400000000         674300000           450000012307Invoice        MUR                   100000STD                                               
DTLIN23000167   06749555846                    25042               FDPB        50042           1400000000        1400000000           4500000        1400000000        1400000000           4500000STD                                               MUR                   100000DR
DTLIN23000167   06749555846                    50042               ATK UU                       674300000         674300000                 0         674300000         674300000                 0ZER                                               MUR                   100000CR
DTLIN23000167   06749555846                    50042               TTX TAX                      691200000         691200000                 0         691200000         691200000                 0ZER                                               MUR                   100000CR
DTLIN23000167   06749555846                    62121               ATK                           30000000          30000000                 0          30000000          30000000                 0STD                                               MUR                   100000CR
DTLIN23000167   06749555846                    26060092                                           4500000           4500000                 0           4500000           4500000                 0STD                                               MUR                   100000CR
HTLPIC001              IN23010167  2301202323012023        1400000000        1395500000           4500000        1400000000         674300000           450000012307Invoice        MUR                   100000STD                                               
DTLIN23010167   16749555845                    25042               FDPB        50042           1400000000        1400000000           4500000        1400000000        1400000000           4500000STD                                               MUR                   100000DR
DTLIN23010167   16749555845                    50042               ATK UU                       674300000         674300000                 0         674300000         674300000                 0ZER                                               MUR                   100000CR
DTLIN23010167   16749555845                    50042               TTX TAX                      691200000         691200000                 0         691200000         691200000                 0ZER                                               MUR                   100000CR
DTLIN23010167   16749555845                    62121               ATK                           30000000          30000000                 0          30000000          30000000                 0STD                                               MUR                   100000CR
DTLIN23010167   16749555845                    26060092                                           4500000           4500000                 0           4500000           4500000                 0STD                                               MUR                   100000CR
HTLPIC001              IN23020167  2301202323012023        1400000000        1395500000           4500000        1400000000         674300000           450000012307Invoice        MUR                   100000STD                                               
DTLIN23020167   26749555843                    25042               FDPB        50042           1400000000        1400000000           4500000        1400000000        1400000000           4500000STD                                               MUR                   100000DR
DTLIN23020167   26749555843                    50042               ATK UU                       674300000         674300000                 0         674300000         674300000                 0ZER                                               MUR                   100000CR
DTLIN23020167   26749555843                    50042               TTX TAX                      691200000         691200000                 0         691200000         691200000                 0ZER                                               MUR                   100000CR
DTLIN23020167   26749555843                    62121               ATK                           30000000          30000000                 0          30000000          30000000                 0STD                                               MUR                   100000CR
DTLIN23020167   26749555843                    26060092                                           4500000           4500000                 0           4500000           4500000                 0STD                                               MUR                   100000CR
HTLPIC001              IN23030167  2301202323012023        1400000000        1395500000           4500000        1400000000         674300000           450000012307Invoice        MUR                   100000STD                                               
DTLIN23030167   36749555837                    25042               FDPB        50042           1400000000        1400000000           4500000        1400000000        1400000000           4500000STD                                               MUR                   100000DR
DTLIN23030167   36749555837                    50042               ATK UU                       674300000         674300000                 0         674300000         674300000                 0ZER                                               MUR                   100000CR
DTLIN23030167   36749555837                    50042               TTX TAX                      691200000         691200000                 0         691200000         691200000                 0ZER                                               MUR                   100000CR
DTLIN23030167   36749555837                    62121               ATK                           30000000          30000000                 0          30000000          30000000                 0STD                                               MUR                   100000CR
DTLIN23030167   36749555837                    26060092                                           4500000           4500000                 0           4500000           4500000                 0STD                                               MUR                   100000CR
HTLPIC001              IN23040167  2301202323012023        1400000000        1395500000           4500000        1400000000         674300000           450000012307Invoice        MUR                   100000STD                                               
DTLIN23040167   46749555844                    25042               FDPB        50042           1400000000        1400000000           4500000        1400000000        1400000000           4500000STD                                               MUR                   100000DR
DTLIN23040167   46749555844                    50042               ATK UU                       674300000         674300000                 0         674300000         674300000                 0ZER                                               MUR                   100000CR
DTLIN23040167   46749555844                    50042               TTX TAX                      691200000         691200000                 0         691200000         691200000                 0ZER                                               MUR                   100000CR
DTLIN23040167   46749555844                    62121               ATK                           30000000          30000000                 0          30000000          30000000                 0STD                                               MUR                   100000CR
DTLIN23040167   46749555844                    26060092                                           4500000           4500000                 0           4500000           4500000                 0STD                                               MUR                   100000CR
HTLPIC001              IN23050167  2301202323012023        1400000000        1395500000           4500000        1400000000         674300000           450000012307Invoice        MUR                   100000STD                                               
DTLIN23050167   56749555840                    25042               FDPB        50042           1400000000        1400000000           4500000        1400000000        1400000000           4500000STD                                               MUR                   100000DR
DTLIN23050167   56749555840                    50042               ATK UU                       674300000         674300000                 0         674300000         674300000                 0ZER                                               MUR                   100000CR
DTLIN23050167   56749555840                    50042               TTX TAX                      691200000         691200000                 0         691200000         691200000                 0ZER                                               MUR                   100000CR
DTLIN23050167   56749555840                    62121               ATK                           30000000          30000000                 0          30000000          30000000                 0STD                                               MUR                   100000CR
DTLIN23050167   56749555840                    26060092                                           4500000           4500000                 0           4500000           4500000                 0STD                                               MUR                   100000CR
HTLPIC001              IN23060167  2301202323012023        1400000000        1395500000           4500000        1400000000         674300000           450000012307Invoice        MUR                   100000STD                                               
DTLIN23060167   66749555839                    25042               FDPB        50042           1400000000        1400000000           4500000        1400000000        1400000000           4500000STD                                               MUR                   100000DR
DTLIN23060167   66749555839                    50042               ATK UU                       674300000         674300000                 0         674300000         674300000                 0ZER                                               MUR                   100000CR
DTLIN23060167   66749555839                    50042               TTX TAX                      691200000         691200000                 0         691200000         691200000                 0ZER                                               MUR                   100000CR
DTLIN23060167   66749555839                    62121               ATK                           30000000          30000000                 0          30000000          30000000                 0STD                                               MUR                   100000CR
DTLIN23060167   66749555839                    26060092                                           4500000           4500000                 0           4500000           4500000                 0STD                                               MUR                   100000CR
HTLPIC001              IN23000168  2301202323012023        1400000000        1395500000           4500000        1400000000         674300000           450000012307Invoice        MUR                   100000STD                                               
DTLIN23000168   06749555836                    25042               FDPB        50042           1400000000        1400000000           4500000        1400000000        1400000000           4500000STD                                               MUR                   100000DR
DTLIN23000168   06749555836                    50042               ATK UU                       674300000         674300000                 0         674300000         674300000                 0ZER                                               MUR                   100000CR
DTLIN23000168   06749555836                    50042               TTX TAX                      691200000         691200000                 0         691200000         691200000                 0ZER                                               MUR                   100000CR
DTLIN23000168   06749555836                    62121               ATK                           30000000          30000000                 0          30000000          30000000                 0STD                                               MUR                   100000CR
DTLIN23000168   06749555836                    26060092                                           4500000           4500000                 0           4500000           4500000                 0STD                                               MUR                   100000CR
HTLPIC001              IN23010168  2301202323012023        1400000000        1395500000           4500000        1400000000         674300000           450000012307Invoice        MUR                   100000STD                                               
DTLIN23010168   16749555847                    25042               FDPB        50042           1400000000        1400000000           4500000        1400000000        1400000000           4500000STD                                               MUR                   100000DR
DTLIN23010168   16749555847                    50042               ATK UU                       674300000         674300000                 0         674300000         674300000                 0ZER                                               MUR                   100000CR
DTLIN23010168   16749555847                    50042               TTX TAX                      691200000         691200000                 0         691200000         691200000                 0ZER                                               MUR                   100000CR
DTLIN23010168   16749555847                    62121               ATK                           30000000          30000000                 0          30000000          30000000                 0STD                                               MUR                   100000CR
DTLIN23010168   16749555847                    26060092                                           4500000           4500000                 0           4500000           4500000                 0STD                                               MUR                   100000CR
